:100000000000012099020000F9020000FB0200003C
:10001000FD020000FF0200000103000000000000DC
:1000200000000000000000000000000003030000CA
:1000300005030000000000000703000009030000A2
:100040000B0300000D0300000F030000110300006C
:1000500013030000350B0000170300001903000014
:100060001B0300001D0300001F030000210300000C
:1000700023030000250300002703000029030000DC
:100080002B0300002D0300002F03000031030000AC
:10009000330300003503000037030000390300007C
:1000A0003B03000000000000000000000000000012
:1000B0000000000000000000000000003D03000000
:1000C0003F0300004103000043030000450300001C
:1000D00047030000490300004B0300004D030000EC
:1000E0004F030000510300005303000055030000BC
:1000F00057030000590300005B0300005D0300008C
:100100005F0300006103000063030000650300005B
:1001100067030000690300006B0300006D0300002B
:100120006F030000710300007303000075030000FB
:1001300077030000790300007B0300007D030000CB
:100140007F0300008103000083030000850300009B
:1001500087030000890300008B0300008D0300006B
:100160008F0300009103000093030000950300003B
:1001700097030000990300009B0300009D0300000B
:100180009F030000A1030000A3030000A5030000DB
:10019000A7030000A9030000AB030000AD030000AB
:1001A000AF030000B1030000B3030000B50300007B
:1001B000B7030000B9030000BB030000BD0300004B
:1001C000BF030000C1030000C3030000C50300001B
:1001D000C7030000C9030000CB030000CD030000EB
:1001E000CF030000D1030000D3030000D5030000BB
:1001F000D7030000D9030000DB030000DD0300008B
:10020000DF030000E1030000E3030000E50300005A
:10021000E7030000E9030000EB030000ED0300002A
:10022000EF030000F1030000F3030000F5030000FA
:10023000F7030000F9030000FB030000FD030000CA
:10024000FF03000001040000030400000504000097
:1002500007040000090400000B0400000D04000066
:100260000F04000011040000130400001504000036
:1002700017040000190400001B0400001D04000006
:100280001F040000210400002304000025040000D6
:1002900027040000290400006448804764480028BF
:1002A0000BD164486449654A884206D091421CBF1C
:1002B00050F8043B41F8043BF8D161486149624A77
:1002C000884206D091421CBF50F8043B41F8043BE1
:1002D000F8D15E485E495F4A914218BF41F8040B6D
:1002E000FAD15D480FF2030E00474FF000004FF0C7
:1002F0000001DFF868F1FEE7FEE7FEE7FEE7FEE754
:10030000FEE7FEE7FEE7FEE7FEE7FEE7FEE7FEE7C5
:10031000FEE7FEE7FEE7FEE7FEE7FEE7FEE7FEE7B5
:10032000FEE7FEE7FEE7FEE7FEE7FEE7FEE7FEE7A5
:10033000FEE7FEE7FEE7FEE7FEE7FEE7FEE7FEE795
:10034000FEE7FEE7FEE7FEE7FEE7FEE7FEE7FEE785
:10035000FEE7FEE7FEE7FEE7FEE7FEE7FEE7FEE775
:10036000FEE7FEE7FEE7FEE7FEE7FEE7FEE7FEE765
:10037000FEE7FEE7FEE7FEE7FEE7FEE7FEE7FEE755
:10038000FEE7FEE7FEE7FEE7FEE7FEE7FEE7FEE745
:10039000FEE7FEE7FEE7FEE7FEE7FEE7FEE7FEE735
:1003A000FEE7FEE7FEE7FEE7FEE7FEE7FEE7FEE725
:1003B000FEE7FEE7FEE7FEE7FEE7FEE7FEE7FEE715
:1003C000FEE7FEE7FEE7FEE7FEE7FEE7FEE7FEE705
:1003D000FEE7FEE7FEE7FEE7FEE7FEE7FEE7FEE7F5
:1003E000FEE7FEE7FEE7FEE7FEE7FEE7FEE7FEE7E5
:1003F000FEE7FEE7FEE7FEE7FEE7FEE7FEE7FEE7D5
:10040000FEE7FEE7FEE7FEE7FEE7FEE7FEE7FEE7C4
:10041000FEE7FEE7FEE7FEE7FEE7FEE7FEE7FEE7B4
:10042000FEE7FEE7FEE7FEE7FEE7000035240000FA
:100430000000000060040000600400008C3900002F
:100440008C3900000000002028050020000000007A
:1004500028050020482B002035260000D905000083
:1004600040F22853C2F200031A780AB9012018702A
:10047000704700BF40F20000C2F2000008B50368F8
:100480002BB140F20003C0F2000303B1984708BD4E
:1004900030B5002085B00390039B4CF2BF62C0F2E0
:1004A0002D02934205D8039D6C1C0394039991423D
:1004B000F9D940F27464C2F20004226843F20005E4
:1004C00042F40013D84302212322C4F20105C5F8E7
:1004D000880010230025FF208DF804108DF80620D9
:1004E000202130228DF807308DF809208DF8081072
:1004F0008DF8055001F04EFC0395039B4CF2BF6252
:10050000C0F22D02934205D8039B581C0390039917
:100510009142F9D9226843F2000342F48001C843B2
:10052000C4F20103C3F8880000F040FA00220392ED
:1005300003994CF2BF62C0F22D02914205D8039B91
:10054000591C0391039B9342F9D9216843F200039C
:1005500041F40002D243C4F20103C3F88820002210
:100560000392039B4CF2BF62C0F22D02934205D866
:10057000039B01330393039B9342F9D941F08071AC
:1005800043F20003CA43C4F2010320F4017CC3F820
:1005900088204CF0A30001F065FB00210391039833
:1005A0004CF2BF62C0F22D02904205D803994B1C59
:1005B000039303989042F9D9216843F2000041F077
:1005C0000073DA43C4F20100C0F8882001A800F0EB
:1005D000FFFD05B030BD00BF70B5CCB000F072F8C3
:1005E0001B20052100F0A6F81A20052100F0A2F832
:1005F0001920052100F09EF81820052100F09AF836
:100600001720052100F096F81620052100F092F839
:100610001520052100F08EF80521142000F08AF83D
:1006200000234B934B9A4CF2BF6340F27464C0F2C8
:100630002D03C2F200044FF000619A42216005D8F8
:100640004B9E751C4B954B989842F9D943F2000686
:100650006FF00160C4F20106C6F88800FFF718FFCA
:10066000236843F2F42543F08061C0F20005CA43D9
:10067000EC46C6F8882095E80F00ACE8070005F1C5
:10068000100114220DF10E00ACF8003001F0FAFF59
:1006900005F1240108220DF1220001F0F3FF40F2E0
:1006A0007451C2F200010DF12A004FF4807201F082
:1006B000E9FF6C4620464FF495714FF0FF3200F091
:1006C000F5FFF7E742F20003CEF20403186B43F2A2
:1006D000203C40F480424EF20010F0B41A63C0F2A5
:1006E000000CCEF20000002301249A1C3CF80310F9
:1006F0003CF8023001F01F0703F01F0514FA07F75A
:1007000014FA05F50EB21BB259097609931C60362E
:100710006031402B40F8267040F82150E5D142F27C
:100720000003CEF204031A6B22F480401863F0BC7D
:10073000704700BF1F2801D900BE704743F2203226
:10074000C0F2000202EB8000036C1960704700BF2A
:100750001F2801D900BE704740F20003C4F22623CF
:1007600000F5886043F82010704700BF1F2810B4C0
:1007700002D900BE10BC704701291DD018D2012338
:1007800003FA00FC43F20003C4F2010343F22032F7
:10079000D3F88810C0F2000202EB8000026C21EA5C
:1007A0000C01C3F88810116841F004001060E1E703
:1007B000022917D000BEDDE7814043F20003C4F2F6
:1007C000010343F22032D3F88840C0F2000202EB6A
:1007D0008000026C2143C3F88810116841F00400C6
:1007E0001060C7E743F2203CC0F2000C0CEB800124
:1007F0000B6C186820F004021A60BBE71F2810B4C5
:1008000002D900BE10BC704743F22033C0F200038F
:1008100033F810C001240CF01F02944003EB800158
:100820000A6C4EF2001310680FFA8CF140F00800C9
:100830004909CEF20003106043F82140E2E700BF0F
:100840001F2801D900BE704743F2203CC0F2000CC3
:100850000CEB80010B6C186820F008021A607047DE
:100860001F2810B402D900BE10BC704743F22033D9
:10087000C0F2000333F810C001220CF01F0412FA7A
:1008800004F412FA00F00FFA8CF1490943F2000265
:100890004EF20013C4F20102CEF200036031C2F83E
:1008A000800043F82140DFE730B41346C2B30D782F
:1008B00043F2E03480EA050202F0FF0CC0F20004CB
:1008C00054F82C505A1E85EA102002F0010501222E
:1008D000934225D965B191F801C0022280EA0C0546
:1008E00005F0FF0C54F82C50934285EA102017D9DC
:1008F00011F802C0013280EA0C0505F0FF0C54F833
:100900002C5011F802C085EA102080EA0C0505F091
:10091000FF0C54F82C500132934285EA1020E7D89E
:1009200030BC704730B403460A4600293BD00078FB
:1009300043F2E034C14301F0FF0CC0F2000454F86C
:100940002C50511E6FF07F4085EA000001F0010538
:1009500001218A4225D965B193F801C0022180EABC
:100960000C0505F0FF0C54F82C508A4285EA102043
:1009700017D913F801C0013180EA0C0505F0FF0C0E
:1009800054F82C5013F801C085EA102080EA0C05B9
:1009900005F0FF0C54F82C5001318A4285EA1020F2
:1009A000E7D830BC70474FF0FF30FAE740F22C53E5
:1009B000C2F20003196840F2786343F20002C2F207
:1009C0000003C4F20002994210B49069146A08D07E
:1009D00093F804C01CF0010F03D003F511518842B5
:1009E0006DD000BE40F20003C4F20623D3F878169F
:1009F000D3F85826081E18BF01200AB140F00200A3
:100A000040F20001C4F20621D1F854260AB140F0A8
:100A1000040043F20002C4F20002136BC3F38133FB
:100A2000022B08BF40F0100008D0032B08BF40F095
:100A3000180003D0012B08BF40F0080040F200036B
:100A4000C4F20623D3F8241609B140F0200040F286
:100A50000001C4F20621D1F81C260AB140F0400082
:100A600040F20002C4F20622D2F818360BB140F070
:100A7000800040F20003C4F20623D3F8101609B137
:100A800040F4807040F20001C4F20621D1F80C2637
:100A90000AB140F4007040F20002C4F20622D2F81B
:100AA00008360BB140F4806040F20003C4F2062324
:100AB000D3F8001609B140F4006010BC704703F58C
:100AC00044600C3084428CD18CE700BF40F22C5340
:100AD000C2F20003196840F2786343F20002C2F2E6
:100AE0000003C4F20002994230B49469156A08D038
:100AF00093F804C01CF0010F03D003F511518C4290
:100B000012D000BED97A417193F80AC080F804C0AF
:100B10005A7AC270197A817093F807C080F801C0C0
:100B20009B79037030BC704703F544620C329542E8
:100B3000E7D1E7E7EC462CF007018D4640F22C5157
:100B4000C2F200012DE97850086840F2786343F260
:100B50000002C2F20003C4F2000298429469156ACE
:100B600007D0187910F0010F03D003F51152944209
:100B70003ED000BE43F20002C4F20002906A10F4BC
:100B8000803F02BF4CF6E753C0F2010393621ED0D0
:100B900010F0010204D0194C0122256BAD18256319
:100BA00010F0400F17D0154D43F200006E684CF660
:100BB000E754C4F200000136C0F201046E608462A2
:100BC00042F00200DB6E4A68934200D09847BDE8CD
:100BD00079408546704743F200004CF6E754C4F272
:100BE0000000C0F201048462002AF0D00120E9E78D
:100BF00003F544600C308542BBD1BBE7F82A0020E6
:100C000040F22C52C2F2000270B440F278631468D1
:100C100043F20001C2F20003C4F200019C428D695C
:100C20000E6A08D093F804C01CF0010F03D003F53E
:100C30001154A54214D000BE546840F200020021B5
:100C4000C4F20622A042C2F80017D866C2F81817EC
:100C500004D00123C2F80037C2F8183770BC7047BF
:100C600003F544610C318E42E5D1E5E740F22C53A7
:100C7000C2F20003196840F2786343F20002C2F244
:100C80000003C4F20002994210B49069146A08D0BB
:100C900093F804C01CF0010F03D003F511518842F2
:100CA00011D000BE59794A4250B20728D5BF094B2E
:100CB00043F2E07000EB8000C0F20000D8BF03EB0D
:100CC000C00010BC704703F544600C308442E8D18A
:100CD000E8E700BFF037000040F22C53C2F20003F7
:100CE000196840F2786343F20002C2F20003C4F2D2
:100CF0000002994230B49469156A08D093F804C090
:100D00001CF0010F03D003F511518C4246D000BEF8
:100D1000112841D8DFE800F03D3A3734312E2B2836
:100D200025221F1C191613100D091F4A906C30BC88
:100D300070471D49486CFAE71C4B1868F7E71A4AD8
:100D4000D06BF4E71849886BF1E7174B586BEEE767
:100D5000154A106BEBE71449C86AE8E7124B986A2A
:100D6000E5E7114A506AE2E70F49086ADFE70E4BF0
:100D7000D869DCE70C4A9069D9E70B494869D6E79E
:100D8000094B1869D3E7084AD068D0E70649886854
:100D9000CDE7054B5868CAE70020C8E703F5446271
:100DA0000C329542B3D1B3E7F82A0020382B00204B
:100DB00040F27862C2F20002D2F86C1C70B401F505
:100DC00011700301995802F5125311F0804F02D0AF
:100DD0009D686C1C9C6011F4804F02D0D868461C42
:100DE000DE6011F4006F02D01D696C1C1C6111F4EF
:100DF000007F02D15869461C5E6111F4807F02D1E8
:100E00009D696C1C9C6111F0800F02D0D869461C52
:100E1000DE6111F0400F02D01D6A6C1C1C6211F0E3
:100E2000020F02D05E6A711C596243F20004C4F2E0
:100E30000004206CD2F86C6C9D6ADC6A20F07F4C58
:100E40002CF47E01C0F34B404019091906F5117CC2
:100E5000D96298624FEA0C1C4FF000434CF8023004
:100E6000D2F86C0C40F20003411C01F00300C2F800
:100E70006C0CC4F206230122C3F8042670BC704730
:100E800040F20003C4F2062370B5D3F80C4640F2DA
:100E90007865D4F1010438BF0024C2F200050026B1
:100EA000D5F86C3C03F5117105EB011300E000244B
:100EB0001A68002A0ADB4CB1186800F40342B2F544
:100EC000407FF4D0FFF774FF0136E9E7304670BD8C
:100ED00040F22C50C2F20000026810B540F2786473
:100EE00043F20003C2F20004C4F20003A242996973
:100EF000186A08D094F804C01CF0010F03D004F560
:100F0000115E714514D000BEFFF7BAFFD4F86C1C17
:100F100040F2786301F5117212011059C2F2000318
:100F2000002803DBD058C0F30D4010BD002010BDD9
:100F300004F544610C318842E5D1E5E743F2000253
:100F4000C4F2000240F27863916DC2F2000340F2F5
:100F5000000010B4C4F20620B3F8664089B24FF620
:100F6000FF72D0F85806A14298BF0022C1EB040CD2
:100F7000624410B902EB820462009C6E40F2786019
:100F8000A242C2F2000010D2A21A8266986E4CF2FF
:100F90003F5200EB80004000C4F22532A2FB00C0AB
:100FA000A3F86610400910BC704700228266EDE786
:100FB00040F278634DF6904070B5C2F20003C0F283
:100FC000010043F200069866C4F20006B26D40F2DA
:100FD0000005A3F86620C4F20625002408E05CB9E9
:100FE000C5F80446FFF7AAFF002808BF6FF0050404
:100FF000B16A11F4C02FF2D1204670BD40F278637F
:101000004DF6904070B5C2F20003C0F2010043F209
:1010100000069866C4F20006B26D40F20005A3F81F
:101020006620C4F20625002408E05CB9C5F8344601
:10103000FFF784FF002808BF6FF00504B16A11F4C0
:10104000E00FF2D1204670BD2DE9F04F40F27864F8
:10105000C2F20004227940F2C003BBB0C0F6002304
:101060004FF0004112F002023691379340F0938026
:10107000379D06A945F480004027379003923891A8
:10108000A5233992A420A125A0264FF09D08019701
:101090004FF09C09E27A94F806B0059294F807A004
:1010A0003AAA277A94F809E0551991449044961980
:1010B00094F80AC009F8D0BC101808F8D0AC06F8AB
:1010C000D07C05F8D0EC059DD21800F8D0CC039860
:1010D00040F2786302F8D05C019A0918C2F200036A
:1010E000002093F80C805F7B9E7BDD7B93F810E003
:1010F00093F811C0063081F800804F700E714D7169
:1011000081F808E081F809C006330C318242E8DC3E
:10111000FFF774FF00B100BEFFF74AFF00B100BE49
:1011200043F2000640F200024DF69040C4F2000681
:10113000C4F20622C0F20100012736A93162C2F8CA
:101140003476A066B36D0025A4F8663007E065B973
:10115000B760FFF7F3FE002808BF6FF00505B36A1C
:10116000C3F3025CBCF1060FF1D1FFF747FF10BBE0
:10117000164843F2000240F20003C4F206230121A4
:10118000C4F200021062C3F83416C3F804162846ED
:101190003BB0BDE8F08F002606A90C275A223891F3
:1011A000B146399609230820052504264FF0010889
:1011B000039701926EE74FF0FF3E84F805E0FFF7DA
:1011C0001DFF0028D4D000BED2E700BFC41200200B
:1011D00040F22C53C2F20003196840F2786343F2E4
:1011E0000002C2F20003C4F200029942F0B4946912
:1011F000156A09D093F804C01CF0010F04D003F560
:1012000011518C4200F0298100BE90F800C01CF002
:10121000010F00D000BE42791979DA7290F804C04B
:1012200040F2786283F80AC090F803C011F0020F10
:1012300083F809C090F802C0C2F2000283F808C027
:1012400090F801C083F807C00078987100F003811E
:1012500092F8601011F0010F40F0FD8092F85A7082
:10126000D67A957A547A92F808C0D079917917F0A5
:10127000010F82F8656082F8645082F8634082F85A
:1012800062C082F8610082F8601040F0E48092F859
:10129000547082F85F6017F0010F82F85E5082F898
:1012A0005D4082F85CC082F85B0082F85A1040F022
:1012B000D28092F84E7082F8596017F0010F82F8D0
:1012C000585082F8574082F856C082F8550082F88C
:1012D000541040F0C08092F8487082F8536017F0C4
:1012E000010F82F8525082F8514082F850C082F8C3
:1012F0004F0082F84E1040F0AE8092F8427082F8B3
:101300004D6017F0010F82F84C5082F84B4082F884
:101310004AC082F8490082F8481040F09C8092F858
:101320003C7082F8476017F0010F82F8465082F84F
:10133000454082F844C082F8430082F8421040F0F1
:101340008A8092F8367082F8416017F0010F82F8B7
:10135000405082F83F4082F83EC082F83D0082F85B
:101360003C1078D192F8307082F83B6017F0010F92
:1013700082F83A5082F8394082F838C082F8370053
:1013800082F8361067D193F82A70DD7A9C7A93F848
:1013900009C0187AD9799E7940F2786217F0010F66
:1013A00083F8355083F8344083F833C083F8320033
:1013B00083F8311083F83060C2F200024BD192F80A
:1013C000243082F82F5013F0010F82F82E4082F85B
:1013D0002DC082F82C0082F82B1082F82A603AD1B6
:1013E000937F82F8295013F0010F82F8284082F889
:1013F00027C082F8260082F8251082F824602AD1BE
:10140000137E82F8235013F0010F82F8224082F8F5
:1014100021C082F82000D17796771CD1937C557734
:1014200013F0010F147782F81BC090765176167670
:1014300011D1137BD57513F0010F947582F815C087
:101440001075D174967406D116735574147482F89D
:101450000FC090735173F0BCF6E503F544620C3293
:1014600095427FF4D1AED0E6F8B540F22C54C2F2EA
:101470000004226840F2786443F20003C2F20004E0
:10148000C4F20003A24205460E469969186A07D0C5
:10149000277917F0010F03D004F5115C614556D090
:1014A00000BE06F17F424FF6FD7E501ECFF6FF6E66
:1014B00070453AD800BEFFF7E3FC7A2707FB06FE2B
:1014C0004CF6CD4CCCF6CC4CACFB0E1343F20000EA
:1014D000DA08A266C4F20000816DA4F8661000204C
:1014E000D4F86C7C07F5117104EB01110A6840F225
:1014F0007863002AC2F200030ADA30BBB6F1FF3F7C
:10150000F4D0FFF71BFDD0F1010038BF0020E7E762
:10151000D8B9086803EB071C0CF51052C0F30D4155
:10152000936C081F2B6080B2F8BDFFF7A9FCB6F1E1
:10153000FF3FD4D0002EC0D143F20007A666C4F20C
:101540000007BB6DA4F86630C9E70020F8BD04F5BC
:1015500044610C318842A3D1A3E700BF2DE9F845CF
:1015600040F22C53C2F2000340F278641F6843F249
:101570000006C2F20004C4F20006A74205468846EF
:101580009246B169306A07D0227912F0010F03D078
:1015900004F5115C614552D000BE9B689D424CD061
:1015A0000AF17F464FF6FD7E701ECFF6FF6E704546
:1015B00031D800BEFFF764FC7A2202FB0AFE4CF62B
:1015C000CD4CCCF6CC4CACFB0E1343F20000DE0845
:1015D000A666C4F20000836DA4F866300020D4F83B
:1015E0006C6C06F5117104EB01110A6840F2786326
:1015F000002AC2F200030ADA50B9BAF1FF3FF4D070
:10160000FFF79CFCD0F1010038BF0020E7E7E0B114
:101610000020BDE8F885FFF733FCBAF1FF3FDDD0CD
:10162000BAF1000FC8D143F20001C4F868A0C4F2B7
:1016300000018A6DA4F86620D0E700BEB0E704F58B
:1016400044610C318842A7D1A7E70A68C2F30D4173
:101650000C1FA4B2444526D803EB061303F5105023
:10166000836CDCB11B1913F801CD611E2D1905F82F
:1016700001CD01F001000A4681B128B113F8011D26
:10168000013A05F8011D09D013F8010D023A05F8D9
:10169000010D13F801ED05F801EDF5D1FFF788FB19
:1016A0002046BDE8F8850538BDE8F8852DE9F84500
:1016B00040F22C53C2F2000340F278641F6843F2F8
:1016C0000005C2F20004C4F20005A742064688469F
:1016D0009246A969286A08D0227912F0010F04D035
:1016E00004F5115C614500F0F58000BE22799B682D
:1016F0009E4200F0ED80B8F10B0F00D800BE12F052
:10170000080F04D140F2EA50804500D900BE0AF12A
:101710007F414FF6FD7C4A1ECFF6FF6C624532D802
:1017200000BE7A2000FB0AF24CF6CD4CCCF6CC4C35
:10173000ACFB021343F20007D908A166C4F200070C
:10174000BD6DA4F8665043F20005C4F20005002107
:101750000127226F1001031903F544620C3213684C
:10176000002B0CDA61B9BAF1FF3FAF60F7D0FFF799
:10177000E5FB002814BF00216FF00501E9E769B11E
:101780000020BDE8F885BAF1000F40F0AA80206F74
:1017900000010219D2F84C3C002BF1DB05190021A5
:1017A000C5F8501C227940F2786312F0040FC2F29F
:1017B00000031FBF1A6F03EB0213D3F8502C42F043
:1017C000806218BFC3F8502C206F04EB0015D5F8C9
:1017D000501C40F2EC5041F0C042C5F8502C236F31
:1017E000804538BF404604EB0315D5F8501C48EA45
:1017F0000102C5F8502CD4F8603C226F43F0007110
:1018000002F1C50CC4F8601C04EB0C156B68E0B168
:10181000361816F801CD411E1B1803F801CD01F052
:1018200001050A4681B12DB116F801CD4A1E03F813
:1018300001CD09D016F8011D023A03F8011D16F872
:10184000015D03F8015DF5D1226F04EB0212D2F8BD
:101850004C3C264A13F4006F02D0516B4D1C55636B
:1018600013F4806F02D0916B4D1C956313F4007FCD
:1018700002D0D16B4D1CD56313F4807F03D01C497B
:101880000D6801350D6013F0020F02D0956C691CD4
:101890009164556C216FC3F3C3035B19536404EB6C
:1018A00001154FF00043C5F84C3C216F40F2000297
:1018B0004D1C43F20003012105F00105C4F206228C
:1018C000C4F200032567C2F834169960BDE8F885B4
:1018D00000BE10E704F544610C3188427FF405AF87
:1018E00005E7BAF1FF3F3FF42EAF1AE7F82A0020D0
:1018F000382B002040F22C52C2F200022DE9F047B2
:1019000040F27864176843F20003C2F20004C4F2A4
:101910000003A7420D46064699691B6A08D0207944
:1019200010F0010F04D004F5115C614500F0FE8059
:1019300000BE2079002E00F09E8093689D4200F04A
:10194000F38026B306EB460195F800C049008A1FD4
:101950001CF0010FC2F3400200D100BE06238B42EF
:1019600015D02AB115F803C01CF0010F0CD10AE004
:1019700015F803C01CF0010F00D100BE0633EA5C6D
:1019800012F0010F00D100BE06338B42F0D10F2EB2
:1019900040F2D38040F2786320F00201C2F20003EB
:1019A0002171A3F1400000215A1E83F84B10531EF1
:1019B000834282F84B10F7D1002E58D006212846DA
:1019C000FEF7B0FF4FF0010A00F007080AFA08F12D
:1019D000C0F3C502131993F80CC006F1FF3941EAB0
:1019E0000C071F73AF1DB24509F00109D0463EDA5E
:1019F000B9F1000F15D006213846FEF793FF00F02D
:101A000007080AFA08F1C0F3C502131993F80CC0CD
:101A10004FF0020841EA0C07B0451F7305F10C07AF
:101A200025DA06213846FEF77DFF00F007030AFAA3
:101A300003F1C0F3C502131993F80CC0B81D41EAB5
:101A40000C021A730621FEF76DFF00F0070C0AFA6C
:101A50000CF1C0F3C5031B191A7B08F1010C0CF142
:101A6000010841EA02000C37B0451873D9DBBDE824
:101A7000F047FFF7E9BA40F00205257137463F4BC2
:101A800094F80BC0DA1982F805C0A17A06EB460675
:101A90001171657A701CD57094F808C004EB400091
:101AA00080F80CC0E17903F15A0C5170A579134606
:101AB000C2EB0C01063903F8065BC1F34005811D3A
:101AC0006345D4D08DB1E57A5D71A57A1D71657AD3
:101AD000DD70257A0D73E57900F10C015D70A07958
:101AE000187002F10C036345C1D0E07A1A465871B0
:101AF000A07A1871607AD870207A0873E0795870EB
:101B0000A07902F8060BE07A5071A07A1071607A21
:101B1000D070207A8874E0790C315070A2799A7173
:101B20000C336345E1D1A2E700BE0AE704F5446146
:101B30000C318B427FF4FCAEFCE6062707FB06F770
:101B400040F002002071AFB1ED19791E0B4A15F873
:101B500001CD0B4601F802C001F0010153B119B9E2
:101B600015F8010D013B985415F8011D013B9954DE
:101B7000002BF5D10E2E82DD79E700BF8406002010
:101B800040F22C53C2F20003196840F2786343F22A
:101B90000002C2F20003C4F20002994210B590693B
:101BA000146A08D093F804C01CF0010F03D003F5A9
:101BB000115E70450AD000BE00F0A4FB012800D0E1
:101BC00010BD00F0A7FB40F0010010BD03F544601C
:101BD0000C308442EFD1EFE740F22C50C2F200000B
:101BE00038B5026840F2786443F20003C2F20004A0
:101BF000C4F20003A2429969186A07D0257915F04A
:101C0000010F03D004F5115C614525D000BE00F042
:101C10005DFBFFF7B5FF10F0010F054601D1284627
:101C200038BDFFF7EBF908B1607100BEFFF7C0F9EE
:101C300008B1607100BE40F20003C4F20623012225
:101C4000C5F34000C3F85806C3F80426C3F8242699
:101C5000C3F83426284638BD04F544610C31884267
:101C6000D4D1D4E740F22C53C2F20003196840F2F9
:101C7000786343F20002C2F20003C4F20002994208
:101C800070B504469069156A08D093F804C01CF03A
:101C9000010F03D003F5115E704574D000BEFFF74D
:101CA000ADF900B100BEFFF783F900B100BE40F20C
:101CB0000003C4F2062304F00100C4F34001C4F39E
:101CC000800504F01802C3F85456C3F87806C3F828
:101CD0005816182A16D8DFE802F04D1515151515F7
:101CE0001515421515151515151537151515151555
:101CF00015150D0043F20001C4F200010A6B42F415
:101D000040450D6340F20005C4F20625C4F34013BC
:101D100004F0020CC4F38011C4F3C010C4F34024D7
:101D2000C5F81806C5F824364CEA8300C5F81C1619
:101D3000C5F80C4600F0FEFA0123C5F80436C5F8D4
:101D40003436BDE8704047E743F20003C4F20003B5
:101D5000186B20F4404E4EF400411963D2E743F271
:101D60000005C4F200052A6B22F4404C4CF480407C
:101D70002863C7E743F20001C4F200010B6B23F4B0
:101D800040420A63BEE703F544600C30854285D1CA
:101D900085E700BF2DE9F04FA74C83B040F2000269
:101DA000C4F20622844694E80300ADF80410012131
:101DB00000901346116018680128FCD043F200051A
:101DC000C4F200052B68B3F17E4F00D000BE43F291
:101DD0000007C4F20007BE6AB6F1704F00D000BE23
:101DE00043F20002C4F20002116B40F24008C3F259
:101DF0000028414500D000BE40F22C55C2F200053B
:101E000040F278646868C2F200044FF0000EE066A9
:101E100084F804E084F805E0A4F866E084F80BE0B8
:101E200084F80AE084F809E084F808E084F807E020
:101E300084F806E0A4F15A0123465E1E83F865E0AB
:101E4000731E00208B4286F86500F6D17B4F7C4ED6
:101E5000A7F1400E3146F04681F8F30581F8F2050E
:101E600040F2F2535A1E531E8854C854002BF9D125
:101E700001F5BE6104314145EED17248DFF8D4A1CD
:101E8000DFF8D481C4F86C3C3B6299468364C34656
:101E90007B625146C364FB60CEF80030BB62C0F881
:101EA000C0304364BB608365FB61C3657B600365D1
:101EB000FB6243657B618366BB61C3663B6103660E
:101EC0007B64436683673B63C367FB6303677B6332
:101ED0004367BB63BB64A36681F8EB9581F8EA9521
:101EE00040F2EA535A1E531E01F8029001F8039083
:101EF000002BF7D101F5BC610C315945ECD143F20F
:101F00000002C4F200024FF000494FF4BE61C4F871
:101F1000543C2367C4F8583C2260C4F84C3CC4F8D5
:101F2000503CC4F8643CC4F8683CC4F85C3CC4F859
:101F3000603CCEF8009041648664434EC0F85090F7
:101F400041658665414EC0F8609041668666404EA8
:101F5000C0F8709041678667416F384E41F0007954
:101F6000A6F5F151C0F8749087F800C0C4F854ACDD
:101F7000C4F8641CD4F8607C40F20001C4F206216D
:101F800047F00070C4F8600C0B651768012027F457
:101F90007C571760CB614B601768BCF11F0F27F4AB
:101FA00060271760176827F07C071760C1F8400B9F
:101FB000976D6FEA17476FEA07479765C1F81836BC
:101FC000C1F85406C2F818E0C2F82080C1F84007F2
:101FD00029D800F06FF903202071FFF7FDFD9DF86F
:101FE00002209DF801309DF805609DF804E09DF801
:101FF00003C09DF800702272E371A9680020A771E8
:10200000E67284F80AE084F809C0FFF773FC40F236
:102010000003C4F206230122C3F83426C3F80426C1
:1020200003B0BDE8F08F00F01FF996F800C0BCF1D6
:102030001F0FCED900BECCE730390000F82A0020AF
:10204000E8120020782A0020DC180020D01E002092
:10205000C4240020EC060020C4120020F0B440F29A
:102060000002C4F206224FF0010C002382B0C2F835
:1020700048C9C2F844C9154666461C46C5F84049D9
:102080000194019F132F05D8019A571C0197019ABB
:10209000132AF9D9C5F840690194019F132F05D877
:1020A000019A571C0197019A132AF9D90133202B61
:1020B000E4D1274A8700167807F07C04F50105F47F
:1020C000786045F2020644EA0003002908BF4FF495
:1020D000C04640F2000000271E43C4F206204FF025
:1020E000100C4FF400423C460125C0F840490194D1
:1020F000019B132B05D8019B01330193019B132BEB
:10210000F9D932420CBF00230123C0F84439C0F88A
:1021100040590194019B132B05D8019B0133019376
:10212000019B132BF9D95208BCF1010C0DD0D1F150
:10213000010338BF0023022A14BF002303F0010368
:10214000002BD2D0C0F84879CFE702B0F0BC70477E
:10215000F82A002030B5002183B0FFF77FFF00226E
:1021600040F20001C4F2062110464FF4004C144620
:102170000125C1F840490194019B132B05D8019B0F
:1021800001330193019B132BF9D9D1F84C390BB1D1
:1021900040EA0C00C1F840590194019B132B05D86B
:1021A000019B01330193019B132BF9D90132102AB2
:1021B0004FEA5C0CDDD140F200030022C4F206239A
:1021C000C3F8402901920199132905D8019B5A1C93
:1021D000019201991329F9D903B030BD30B50C46ED
:1021E00083B00121FFF73AFF002140F20002C4F260
:1021F00006224FF4004C08460125C2F84009019020
:10220000019B132B05D8019B01330193019B132BD9
:10221000F9D91CEA040F0CBF00230123C2F844398A
:10222000C2F840590190019B132B05D8019B013343
:102230000193019B132BF9D9013110294FEA5C0C52
:10224000DBD140F200010022C4F20621C1F840298E
:1022500001920198132805D8019A501C0190019B06
:10226000132BF9D903B030BDF8B5114F00244FF648
:10227000FD7602203C70FFF76DFF411E8BB20134EA
:102280000220B342E4B20A4D10D93C70FFF762FF5E
:10229000421E90B2B04209D9631CDCB2202CE8D1B6
:1022A0004FF0FF3C85F800C0FF20F8BD2878F8BD4E
:1022B000F82A0020002010B54FF40041FFF78EFFF0
:1022C00000204FF49451BDE8104087E738B5002056
:1022D000FFF740FF40F4905189B20020FFF77EFFE6
:1022E000002440F2E7350120FFF734FF013480F08D
:1022F0002000AC42CCBF0023012313EA5013F2D1DB
:1023000038BD00BF08B50120FFF724FFC0F38000EF
:1023100008BD00BF08B51220FFF71CFF034610F4EC
:10232000006018BF042013F4806F1CBF40F002004F
:10233000C0B208BD10B504460420FFF70BFF14F02F
:10234000020F40F4F07189B203D121F4C07210047D
:10235000010C14F0040F03D121F4A0710B04190C2B
:102360000420BDE8104039E710B504460020FFF70F
:10237000F1FE012C0CBF40F4804180F4804189B211
:102380000020FFF72BFF0020BDE81040E2E600BF71
:10239000EFF309800046704780F30988704700BF5B
:1023A000EFF308800046704780F30888704700BF4D
:1023B000EFF31280704700BF80F31188704700BFB1
:1023C000EFF31080704700BF80F31088704700BFA4
:1023D000EFF31380704700BF80F31388704700BF8E
:1023E000EFF31480704700BF80F31488704700BF7C
:1023F00000BA704740BA7047C0BA704790FAA0F070
:10240000704700BFD0E84F0FC0B27047D0E85F0FF1
:1024100080B2704750E8000F704700BFC1E8400F1E
:10242000704700BFC1E8500F704700BF41E800008F
:10243000704700BF704700BF30B443F6381C84B00B
:10244000C0F2000C6D469CE80F0085E80F0042F2D8
:102450000003CEF20403986C996C9A6CDD6C0DF15C
:10246000100C00F00C04DB6CC1F30110C2F38111FD
:102470000CEB8102C5F30421013113F4005F40F637
:102480001C0364440CEB8000C6F2080354F8105C93
:1024900050F8104C52F8100C1A6844F24133C4F64C
:1024A000544318BF49009A4219D000BE47F6400273
:1024B000C0F27D1240F20803C2F20003B2FBF5F550
:1024C000B2FBF4F4B2FBF0F0B2FBF1F15A615D60E3
:1024D0009C60D86019611A6004B030BC704740F647
:1024E0004003C6F208031A6840F2003322F07F422C
:1024F000C0F201039A42D8D9B2F5003F07D241F2A7
:102500002C63C6F208031A68002AD3D1CDE7B2F5CE
:10251000403FCAD241F6AC63C6F208031A68002AEB
:10252000C8D1C2E74FF0FF30704700BF42F64433D6
:10253000C2F200030C221A604FF0FF30704700BF58
:10254000FEE700BF42F64433C2F200030B221A60DA
:102550004FF0FF30704700BF4FF400534B60002036
:10256000704700BF012070470120704742F6443396
:10257000C2F2000316221A604FF0FF30704700BF0E
:1025800042F64433C2F200031F221A604FF0FF30BC
:10259000704700BF002070474FF0FF30704700BF0A
:1025A000002070474FF400534B600020704700BF7D
:1025B0004FF0FF30704700BF42F64433C2F20003D1
:1025C00002221A604FF0FF30704700BF42F64433DA
:1025D000C2F200030A221A604FF0FF30704700BFBA
:1025E0000020704708B540F23853C2F200031A6861
:1025F0003AB1EFF308811018814208D318601046F1
:1026000008BD42F64832C2F200021A60F1E743F612
:102610004811C0F200011922012000F03FFA00F039
:1026200001F800BF08B5062000F0A6F90120FFF769
:1026300087FF00BF70B543F6841643F68415C0F2D9
:102640000006C0F20005761BB61006D0002455F82F
:10265000243001349847A642F9D843F6841543F64E
:102660008816C0F20005C0F20006761B01F07EF964
:10267000B61006D0002455F8243001349847A642FD
:10268000F9D870BD032A2DE9F0070BD83AB1002321
:1026900011F803C000F803C001339342F8D1BDE83C
:1026A000F007704782180C46034603E014F8011C3B
:1026B00003F8011C03F003061946A4460133013454
:1026C000002EF3D11CF00304634608BFC1EB020CDB
:1026D00068D06542C4F1040A0CEB050733464FEAA3
:1026E000CA0A5CF805604FEAC408551A08E057F8B2
:1026F000044F264604FA0AF449EA0404CC50043391
:102700005C18032D26FA08F9A5F104050CEB030665
:10271000EDDC002302E0F15CE15401331919914230
:10272000F9D3BCE753F8404C41F8404C53F83C4CCB
:1027300041F83C4C53F8384C41F8384C53F8344C81
:1027400041F8344C53F8304C41F8304C53F82C4C91
:1027500041F82C4C53F8284C41F8284C53F8244CA1
:1027600041F8244C53F8204C41F8204C53F81C4CB1
:1027700041F81C4C53F8184C41F8184C53F8144CC1
:1027800041F8144C53F8104C41F8104C53F80C4CD1
:1027900041F80C4C53F8084C41F8084C53F8044CE1
:1027A00041F8044C1C460D4640334031BCF13F0F0C
:1027B000ACF1400CB6DC21462B46541B0FE051F81F
:1027C000105C43F8105C51F80C5C43F80C5C51F859
:1027D000085C43F8085C51F8045C43F8045C0F2C77
:1027E0000D469C4601F1100103F11003A4F1100401
:1027F000E5DCCCEB0201002303E0EC584CF803408D
:1028000004335E19032903EB0C04A1F10401F4DC89
:102810007FE700BF70B5044688B104F148025368F1
:102820005D1E07D4023302EB830656F8043D984739
:10283000013DFAD5A36A0BB12046984770BD40F21E
:102840002403C2F200031C68E7E700BF70B50C4622
:102850000968054609B1FFF7F9FF28462146BDE89A
:10286000704000F07DB900BF40F22403C2F20003C3
:1028700070B51B680546984246D0436A1946BBB1FD
:10288000DA68AAB10026915941B10C68284600F0D7
:1028900067F92146002CF8D16B6ADA6804363C2EC1
:1028A00001D0DA68EFE71146284600F059F9696A65
:1028B000096811B1284600F053F9696911B1284639
:1028C00000F04EF9696A11B1284600F049F9A96B88
:1028D00011B1284600F044F9E96B11B1284600F027
:1028E0003FF9296C11B1284600F03AF9AB6CD3F8E6
:1028F000881011B1284600F033F9696B11B12846F0
:1029000000F02EF9AB6903B970BDAB6A2846984751
:10291000D5F8D8100029F7D02846BDE8704095E7D3
:102920001F2970B50C46054620D8426CA2B152F85A
:1029300021308BB1012B0DD0B3F1FF3F06D00846FB
:10294000002542F821509847284670BD16230360A1
:10295000012070BD002070BD284600F087F8224697
:1029600001462846BDE8704000F082B81623036097
:102970004FF0FF3070BD00BF40F224030146C2F2A9
:1029800000031868CCE700BF38B5456C04460DB1AC
:10299000002038BD802100F0C3F9606428B12B46C7
:1029A00043510435802DFBD1F2E7013838BD00BF1B
:1029B00040F22403C2F200031868E5E71F2910B5AE
:1029C000044682B012D8426CCAB152F8213002EBF0
:1029D000810283B1B3F1FF3F0FD0012B09D008462C
:1029E000002414609847204602B010BD4FF0FF301D
:1029F000FAE70320F8E70120F6E70220F4E7019167
:102A0000FFF7C2FF01990028F0D1626CDDE700BF3B
:102A100040F224030146C2F200031868CEE700BF6B
:102A20001F2910B5044682B007D8436C53B153F840
:102A3000210043F8212002B010BD162303604FF09F
:102A4000FF30F8E701910092FFF79EFF0199009A8D
:102A500008B9636CEBE74FF0FF30ECE740F224037A
:102A60000A46C2F2000301461868D9E7FFF77ABDAB
:102A700038B542F64434C2F2000405460846114611
:102A800000232360FFF772FDB0F1FF3F00D038BD97
:102A90002368002BFBD02B6038BD00BF10B440F280
:102AA0002404C2F200048C461346014662462068A4
:102AB00010BCFFF795BD00BFF8B540F21814C2F284
:102AC00000040F46054600F0FDFBA3685E6826F093
:102AD000030606F57E630F33DF1B3F0B013F3F0309
:102AE000B7F5805F07DB0021284600F0EFFBA36805
:102AF000F318834204D0284600F0E6FB0020F8BD1E
:102B00007942284600F0E2FBB0F1FF3F10D0A26806
:102B100040F24453C2F20003F61B46F00106284679
:102B200056601A68D71B1F6000F0CEFB0120F8BD6D
:102B30000021284600F0CAFBA368C21A0F2ADADD7A
:102B400040F2205440F24451C2F20004C2F20001AB
:102B500042F001022468001B08605A60CBE700BF06
:102B60002DE9F04105460C46002900F0888000F070
:102B7000A9FBA4F1080240F218105668C2F2000046
:102B800026F00103D0F808C0D1188C454F6827F013
:102B9000030700F0958016F001064F605FD0002615
:102BA000CC19646814F0010F06D1DB19002E7AD01D
:102BB0008C68C9688C60E16043F00101D3505160BA
:102BC000002E47D1B3F5007F5BD3590A04299EBF7D
:102BD0004FEA931C0CF1380C4FEACC0428D9142985
:102BE0009CBF01F15B0C4FEACC0421D954299EBF54
:102BF0004FEA133C0CF16E0C4FEACC0418D9B1F536
:102C0000AA7F9EBF4FEAD33C0CF1770C4FEACC046D
:102C10000ED940F2545C614595BF4FEA934C4FF496
:102C20007C740CF17C0C4FF07E0C98BF4FEACC0406
:102C30000419A168A14203D164E089688C4204D0E0
:102C4000486820F003008342F7D3CB68D3609160DB
:102C5000CA609A602846BDE8F04100F035BB54F8E0
:102C6000084C00F1080C121B1B199468644547D0EE
:102C7000D2F80CC0CCF80840C4F80CC090E7BDE80E
:102C8000F081DB084FF0010C466800EBC3019B109C
:102C90000CFA03F3D1608C6846EA03034360946046
:102CA000E2608A60D6E78C681C4FBC4281D1D35069
:102CB00043F00103E260A26053609460D460C9E70E
:102CC000FB1816F0010F07D154F8081C521A5B18B4
:102CD000D4689168A160CC6040F224518260C2F255
:102CE000000143F0010050600A689342B2D340F201
:102CF00040532846C2F200031968FFF7DDFEA9E73A
:102D000001264DE7012644684FEAAC0C0B4606FA53
:102D10000CFC44EA0C04446098E700BF200100204A
:102D20002DE9F04F01F10B04162C83B006462FD885
:102D3000002310248C422CBF194643F001010029C6
:102D400030D1304600F0BEFAB4F5FC7F2ED24FEA07
:102D5000D40E40F21815C2F2000505EBCE02D3687E
:102D6000934200F006825A6803F10805D96830469C
:102D700022F0030C9A6863445C688A6044F00104A2
:102D8000D1605C6000F0A0FA284603B0BDE8F08F87
:102D900024F00704E30F8C422CBF194643F00101D5
:102DA0000029CED00C2300253360EDE75FEA542ED6
:102DB00004BF4FEAD40E4FEACE0040F0908040F2BC
:102DC0001815C2F200052818C368984206D10DE014
:102DD000002A80F26F81DB68984207D0596821F0A1
:102DE00003010A1B0F2AF3DD0EF1FF3E0EF1010E67
:102DF00040F21817C2F2000707F108018B689942E8
:102E000008BF7A6826D05A6822F0030CC4EB0C0283
:102E10000F2A00F39481002AC960896080F29980AA
:102E2000BCF5007F80F065814FEADC0C4FF0010AB1
:102E30007A6807EBCC004FEAAC0C0AFA0CFCD860BD
:102E4000D0F808804CEA02027A60C3F80880C8F81B
:102E50000C3083604FF0010C4FEAAE030CFA03FC18
:102E6000944500F2828012EA0C0F08D12EF0030E76
:102E70004FEA4C0C0EF1040E12EA0C0FF8D007EBDF
:102E8000CE09F246C846D8F80C30984507D168E11B
:102E9000002A80F27881DB68984500F062815868EA
:102EA00020F00300021B0F2AF2DD1D461F19D3F884
:102EB0000CC044F0010E55F8084F3046BA5042F0AD
:102EC0000102C3F804E0CCF80840C4F80CC08F60DD
:102ED000CF607A60B960F96000F0F6F954E7BEF1AE
:102EE000040F9EBF4FEA941E0EF1380E4FEACE003B
:102EF0007FF665AFBEF1140F9CBF0EF15B0E4FEA7B
:102F0000CE007FF65CAFBEF1540F9EBF4FEA143E79
:102F10000EF16E0E4FEACE007FF651AFBEF5AA7FDE
:102F20009EBF4FEAD43E0EF1770E4FEACE007FF6F9
:102F300046AF40F254539E4595BF4FEA944E4FF42E
:102F40007C700EF17C0E4FF07E0E98BF4FEACE00E3
:102F500035E703EB0C0203F108053046536843F0F4
:102F60000103536000F0B0F90EE7D7F80880D8F8F5
:102F7000043023F00309C4EB09024C4594BF00233D
:102F800001230F2AD8BF43F00103002B00F0A180DA
:102F900040F2405BD5F80824C2F2000BDBF80030A9
:102FA00010331B19B2F1FF3F06D003F57E631F33C8
:102FB00023F47E6323F01F0319463046019300F08B
:102FC00085F9019BB0F1FF3F824600F0F48008EBE9
:102FD0000901814200F2EC80DBF804209A18514587
:102FE000CBF8042000F04581D5F8085440F21810C1
:102FF000C2F20000B5F1FF3F08BFC0F808A403D03B
:103000005244511ACBF804101AF00705304617BF86
:10301000C5F108054FF48055AA4405F58055534481
:103020001B051B0DED1A294600F050F9B0F1FF3FCA
:1030300000F02C81CAEB0001491941F00101DBF8D5
:10304000042040F24053C7F808A0C2F20003AA18B7
:10305000B845CBF80420CAF8041017D0B9F10F0F07
:1030600040F2DF80A9F10C01052521F0070108EBF2
:1030700001000F2985604560D8F8040000F00100C8
:1030800041EA0000C8F8040000F2AC80D04640F2EB
:103090004053DBF82C10C2F200038A42DBF83010F8
:1030A00088BFDA6240F24053C2F200038A4288BF0E
:1030B0001A6382E05C189A68D9683046666803F142
:1030C00008058A6046F00103D160636000F0FCF8F7
:1030D0005AE608EB040342F0010244F001043046D2
:1030E000C8F8044008F108055A60BB6000F0ECF82D
:1030F0004AE64FEA5C22042A54D9142A00F2898055
:103100005B324FEAC208A84440F21817C2F2000727
:10311000D8F80800404503D16FE08068804504D0AE
:10312000426822F003029445F7D3D0F80CC0C3F8EC
:103130000CC098607A68C360CCF808308AE61F1922
:10314000304644F00104CF605C6003F10805BA50DA
:1031500042F001028F607A60B960F96000F0B4F863
:1031600012E60AF1010A1AF0030F5FD003F1080812
:1031700089E603F10802D3689A4208BF0EF1020EF5
:103180003FF436AEEFE51D461918DA68304655F8BB
:10319000083F4C68936044F00104DA604C6000F032
:1031A00093F8F1E54FEA9C1238324FEAC208AAE7D9
:1031B000B8453FF411AFD7F80880D8F8042022F0C2
:1031C0000302944294BF00230123121B0F2AD8BF8D
:1031D00043F00103002B3FF47CAF3046002500F0A4
:1031E00073F8D1E508F1080130460193FFF7B8FC08
:1031F000019BD7F808805A6849E74FF0010AD7F8D1
:103200000480921084460AFA02F248EA02027A60C6
:103210008DE7542A24D84FEA1C326E324FEAC20896
:1032200071E70123D046CAF80430C6E74A461EF0CB
:10323000030F13460EF1FF3E33D053F808299A428C
:10324000F5D07B684FEA4C0C9C453FF68EAEBCF146
:10325000000F3FF48AAE1CEA030F27D0D6460EE6D5
:10326000B2F5AA7F15D84FEADC3277324FEAC208AE
:1032700049E70805000D00287FF4B6AED7F80880AE
:103280004B4443F00103C8F8043000E70121002556
:10329000D5E640F2545082420DD94FF47C787E221C
:1032A00031E77B6823EA0C037B60CBE74FEA4C0CE9
:1032B0000AF1040ACFE74FEA9C427C324FEAC20887
:1032C00021E700BF704700BF704700BF38B542F626
:1032D0004434C2F200040546084600232360FFF789
:1032E00081F9B0F1FF3F00D038BD2368002BFBD03F
:1032F0002B6038BD0048548DC4A900002310203035
:10330000080000004500011C00000000FF11000043
:10331000C0A80102C0A80101BFFFFB07010800000F
:103320002000210022002300240025002600270081
:10333000280029002A002B002C002D002E002F0031
:1033400030003100320033003400350036003700E1
:10335000380039003A003B003C003D003E003F0091
:103360000030014004300140083001400C30014081
:103370001030014014300140183001401C30014031
:103380002030014024300140283001402C300140E1
:103390003030014034300140383001403C30014091
:1033A0004030014044300140483001404C30014041
:1033B0005030014054300140583001405C300140F1
:1033C0006030014064300140683001406C300140A1
:1033D0007030014074300140783001407C30014051
:1033E00000000000963007772C610EEEBA51099963
:1033F00019C46D078FF46A7035A563E9A395649EBF
:103400003288DB0EA4B8DC791EE9D5E088D9D297E2
:103410002B4CB609BD7CB17E072DB8E7911DBF903E
:103420006410B71DF220B06A4871B9F3DE41BE8462
:103430007DD4DA1AEBE4DD6D51B5D4F4C785D383BE
:1034400056986C13C0A86B647AF962FDECC9658A62
:103450004F5C0114D96C0663633D0FFAF50D088DBE
:10346000C8206E3B5E10694CE44160D5727167A262
:10347000D1E4033C47D4044BFD850DD26BB50AA5BE
:10348000FAA8B5356C98B242D6C9BBDB40F9BCACE2
:10349000E36CD832755CDF45CF0DD6DC593DD1AB3E
:1034A000AC30D9263A00DE518051D7C81661D0BF62
:1034B000B5F4B42123C4B3569995BACF0FA5BDB8BE
:1034C0009EB802280888055FB2D90CC624E90BB162
:1034D000877C6F2F114C6858AB1D61C13D2D66B6BE
:1034E0009041DC760671DB01BC20D2982A10D5EF22
:1034F0008985B1711FB5B606A5E4BF9F33D4B8E87E
:10350000A2C9077834F9000F8EA8099618980EE121
:10351000BB0D6A7F2D3D6D08976C6491015C63E67D
:10352000F4516B6B62616C1CD83065854E0062F2A1
:10353000ED95066C7BA5011BC1F4088257C40FF5FD
:10354000C6D9B06550E9B712EAB8BE8B7C88B9FC21
:10355000DF1DDD62492DDA15F37CD38C654CD4FB7D
:103560005861B24DCE51B53A7400BCA3E230BBD421
:1035700041A5DF4AD795D83D6DC4D1A4FBF4D6D37D
:103580006AE96943FCD96E34468867ADD0B860DA21
:10359000732D0444E51D03335F4C0AAAC97C0DDD7D
:1035A0003C710550AA41022710100BBE86200CC9A1
:1035B00025B56857B3856F2009D466B99FE461CEFD
:1035C0000EF9DE5E98C9D9292298D0B0B4A8D7C721
:1035D000173DB359810DB42E3B5CBDB7AD6CBAC07D
:1035E0002083B8EDB6B3BF9A0CE2B6039AD2B17499
:1035F0003947D5EAAF77D29D1526DB048316DC73F5
:10360000120B63E3843B64943E6A6D0DA85A6A7A98
:103610000BCF0EE49DFF099327AE000AB19E077DF4
:1036200044930FF0D2A3088768F2011EFEC2066918
:103630005D5762F7CB67658071366C19E7066B6E74
:10364000761BD4FEE02BD3895A7ADA10CC4ADD6798
:103650006FDFB9F9F9EFBE8E43BEB717D58EB060F4
:10366000E8A3D6D67E93D1A1C4C2D83852F2DF4F98
:10367000F167BBD16757BCA6DD06B53F4B36B248F4
:10368000DA2B0DD84C1B0AAFF64A0336607A044198
:10369000C3EF60DF55DF67A8EF8E6E3179BE6946F4
:1036A0008CB361CB1A8366BCA0D26F2536E2685218
:1036B00095770CCC03470BBBB91602222F26055574
:1036C000BE3BBAC5280BBDB2925AB42B046AB35C98
:1036D000A7FFD7C231CFD0B58B9ED92C1DAEDE5BF4
:1036E000B0C2649B26F263EC9CA36A750A936D02D8
:1036F000A906099C3F360EEB856707721357000534
:10370000824ABF95147AB8E2AE2BB17B381BB60C57
:103710009B8ED2920DBED5E5B7EFDC7C21DFDB0BB3
:10372000D4D2D38642E2D4F1F8B3DD686E83DA1FD7
:10373000CD16BE815B26B9F6E177B06F7747B71833
:10374000E65A0888706A0FFFCA3B06665C0B0111D7
:10375000FF9E658F69AE62F8D3FF6B6145CF6C1633
:1037600078E20AA0EED20DD75483044EC2B30339D7
:10377000612667A7F71660D04D476949DB776E3E33
:103780004A6AD1AEDC5AD6D9660BDF40F03BD83757
:1037900053AEBCA9C59EBBDE7FCFB247E9FFB530B3
:1037A0001CF2BDBD8AC2BACA3093B353A6A3B424D7
:1037B0000536D0BA9306D7CD2957DE54BF67D92333
:1037C0002E7A66B3B84A61C4021B685D942B6F2AD7
:1037D00037BE0BB4A18E0CC31BDF055A8DEF022D33
:1037E000556E6B6E6F776E206572726F720000009F
:1037F0004E6F206572726F72206F636375726564BD
:1038000000000000000000000000000000000000B8
:1038100000000000000000004D6574686F642066C1
:1038200061696C6564000000000000000000000099
:103830000000000000000000000000000000000088
:1038400057726F6E6720706172616D65746572206A
:10385000706173656420746F2066756E6374696F40
:103860006E000000000000004672616D6520697303
:1038700020746F6F206C6F6E670000000000000006
:103880000000000000000000000000000000000038
:103890004E6F7420656E6F75676820737061636525
:1038A00020696E2062756666657200000000000087
:1038B00000000000000000004E6F7420656E6F7500
:1038C000676820737061636520696E206275666643
:1038D0006572000000000000000000000000000011
:1038E00054696D6564206F7574000000000000006D
:1038F00000000000000000000000000000000000C8
:1039000000000000000000004672616D65206973D0
:1039100020746F6F20736D616C6C000000000000FC
:103920000000000000000000000000000000000097
:10393000C0B13C888888000001000000020000003F
:1039400004000000010000004865617020616E64A1
:1039500020737461636B20636F6C6C6973696F6E45
:103960000A0000002800002043000000F8B500BF56
:10397000F8BC08BC9E467047F8B500BFF8BC08BC50
:0C3980009E4670477504000061040000C2
:10398C00000000000000000040787D01105E5F0028
:10399C00105E5F00105E5F00105E5F0040787D017E
:1039AC003C05002028000020000000000000000062
:1039BC0000000000000000000000000000000000FB
:1039CC00000000000000000068390000000000004A
:1039DC0000000000000000000000000000000000DB
:1039EC0000000000000000000000000000000000CB
:1039FC0000000000000000000000000000000000BB
:103A0C0000000000000000000000000000000000AA
:103A1C00000000000000000000000000000000009A
:103A2C00000000000000000000000000000000008A
:103A3C00000000000000000000000000000000007A
:103A4C00000000000000000000000000000000006A
:103A5C00000000000000000000000000000000005A
:103A6C00000000000000000000000000000000004A
:103A7C00000000000000000000000000000000003A
:103A8C00000000000000000000000000000000002A
:103A9C00000000000000000000000000000000001A
:103AAC001801002018010020200100202001002016
:103ABC0028010020280100203001002030010020C6
:103ACC003801002038010020400100204001002076
:103ADC004801002048010020500100205001002026
:103AEC0058010020580100206001002060010020D6
:103AFC006801002068010020700100207001002086
:103B0C007801002078010020800100208001002035
:103B1C0088010020880100209001002090010020E5
:103B2C009801002098010020A0010020A001002095
:103B3C00A8010020A8010020B0010020B001002045
:103B4C00B8010020B8010020C0010020C0010020F5
:103B5C00C8010020C8010020D0010020D0010020A5
:103B6C00D8010020D8010020E0010020E001002055
:103B7C00E8010020E8010020F0010020F001002005
:103B8C00F8010020F80100200002002000020020B3
:103B9C000802002008020020100200201002002061
:103BAC001802002018020020200200202002002011
:103BBC0028020020280200203002002030020020C1
:103BCC003802002038020020400200204002002071
:103BDC004802002048020020500200205002002021
:103BEC0058020020580200206002002060020020D1
:103BFC006802002068020020700200207002002081
:103C0C007802002078020020800200208002002030
:103C1C0088020020880200209002002090020020E0
:103C2C009802002098020020A0020020A002002090
:103C3C00A8020020A8020020B0020020B002002040
:103C4C00B8020020B8020020C0020020C0020020F0
:103C5C00C8020020C8020020D0020020D0020020A0
:103C6C00D8020020D8020020E0020020E002002050
:103C7C00E8020020E8020020F0020020F002002000
:103C8C00F8020020F80200200003002000030020AE
:103C9C00080300200803002010030020100300205C
:103CAC00180300201803002020030020200300200C
:103CBC0028030020280300203003002030030020BC
:103CCC00380300203803002040030020400300206C
:103CDC00480300204803002050030020500300201C
:103CEC0058030020580300206003002060030020CC
:103CFC00680300206803002070030020700300207C
:103D0C00780300207803002080030020800300202B
:103D1C0088030020880300209003002090030020DB
:103D2C009803002098030020A0030020A00300208B
:103D3C00A8030020A8030020B0030020B00300203B
:103D4C00B8030020B8030020C0030020C0030020EB
:103D5C00C8030020C8030020D0030020D00300209B
:103D6C00D8030020D8030020E0030020E00300204B
:103D7C00E8030020E8030020F0030020F0030020FB
:103D8C00F8030020F80300200004002000040020A9
:103D9C000804002008040020100400201004002057
:103DAC001804002018040020200400202004002007
:103DBC0028040020280400203004002030040020B7
:103DCC003804002038040020400400204004002067
:103DDC004804002048040020500400205004002017
:103DEC0058040020580400206004002060040020C7
:103DFC006804002068040020700400207004002077
:103E0C007804002078040020800400208004002026
:103E1C0088040020880400209004002090040020D6
:103E2C009804002098040020A0040020A004002086
:103E3C00A8040020A8040020B0040020B004002036
:103E4C00B8040020B8040020C0040020C0040020E6
:103E5C00C8040020C8040020D0040020D004002096
:103E6C00D8040020D8040020E0040020E004002046
:103E7C00E8040020E8040020F0040020F0040020F6
:103E8C00F8040020F80400200005002000050020A4
:103E9C000805002008050020100500201005002052
:083EAC00FFFFFFFF0000020010
:04000003000002995E
:00000001FF
