:100000000000012099020000F9020000FB0200003C
:10001000FD020000FF0200000103000000000000DC
:1000200000000000000000000000000003030000CA
:1000300005030000000000000703000009030000A2
:100040000B0300000D0300000F030000110300006C
:1000500013030000AD530000170300001903000054
:100060001B030000FD4D00001F03000021030000E2
:1000700023030000250300002703000029030000DC
:100080002B0300002D0300002F03000031030000AC
:10009000D9080000350300003703000039030000D1
:1000A0003B03000000000000000000000000000012
:1000B0000000000000000000000000003D03000000
:1000C0003F0300004103000043030000450300001C
:1000D00047030000490300004B0300004D030000EC
:1000E0004F030000510300005303000055030000BC
:1000F00057030000590300005B0300005D0300008C
:100100005F0300006103000063030000650300005B
:1001100067030000690300006B0300006D0300002B
:100120006F030000710300007303000075030000FB
:1001300077030000790300007B0300007D030000CB
:100140007F0300008103000083030000850300009B
:1001500087030000890300008B0300008D0300006B
:100160008F0300009103000093030000950300003B
:1001700097030000990300009B0300009D0300000B
:100180009F030000A1030000A3030000A5030000DB
:10019000A7030000A9030000AB030000AD030000AB
:1001A000AF030000B1030000B3030000B50300007B
:1001B000B7030000B9030000BB030000BD0300004B
:1001C000BF030000C1030000C3030000C50300001B
:1001D000C7030000C9030000CB030000CD030000EB
:1001E000CF030000D1030000D3030000D5030000BB
:1001F000D7030000D9030000DB030000DD0300008B
:10020000DF030000E1030000E3030000E50300005A
:10021000E7030000E9030000EB030000ED0300002A
:10022000EF030000F1030000F3030000F5030000FA
:10023000F7030000F9030000FB030000FD030000CA
:10024000FF03000001040000030400000504000097
:1002500007040000090400000B0400000D04000066
:100260000F04000011040000130400001504000036
:1002700017040000190400001B0400001D04000006
:100280001F040000210400002304000025040000D6
:1002900027040000290400006448804764480028BF
:1002A0000BD164486449654A884206D091421CBF1C
:1002B00050F8043B41F8043BF8D161486149624A77
:1002C000884206D091421CBF50F8043B41F8043BE1
:1002D000F8D15E485E495F4A914218BF41F8040B6D
:1002E000FAD15D480FF2030E00474FF000004FF0C7
:1002F0000001DFF868F1FEE7FEE7FEE7FEE7FEE754
:10030000FEE7FEE7FEE7FEE7FEE7FEE7FEE7FEE7C5
:10031000FEE7FEE7FEE7FEE7FEE7FEE7FEE7FEE7B5
:10032000FEE7FEE7FEE7FEE7FEE7FEE7FEE7FEE7A5
:10033000FEE7FEE7FEE7FEE7FEE7FEE7FEE7FEE795
:10034000FEE7FEE7FEE7FEE7FEE7FEE7FEE7FEE785
:10035000FEE7FEE7FEE7FEE7FEE7FEE7FEE7FEE775
:10036000FEE7FEE7FEE7FEE7FEE7FEE7FEE7FEE765
:10037000FEE7FEE7FEE7FEE7FEE7FEE7FEE7FEE755
:10038000FEE7FEE7FEE7FEE7FEE7FEE7FEE7FEE745
:10039000FEE7FEE7FEE7FEE7FEE7FEE7FEE7FEE735
:1003A000FEE7FEE7FEE7FEE7FEE7FEE7FEE7FEE725
:1003B000FEE7FEE7FEE7FEE7FEE7FEE7FEE7FEE715
:1003C000FEE7FEE7FEE7FEE7FEE7FEE7FEE7FEE705
:1003D000FEE7FEE7FEE7FEE7FEE7FEE7FEE7FEE7F5
:1003E000FEE7FEE7FEE7FEE7FEE7FEE7FEE7FEE7E5
:1003F000FEE7FEE7FEE7FEE7FEE7FEE7FEE7FEE7D5
:10040000FEE7FEE7FEE7FEE7FEE7FEE7FEE7FEE7C4
:10041000FEE7FEE7FEE7FEE7FEE7FEE7FEE7FEE7B4
:10042000FEE7FEE7FEE7FEE7FEE70000AD6C00003A
:10043000000000006004000060040000708B0000F9
:10044000708B0000000000202C0500200000000040
:1004500030050020689B002091760000810C000090
:1004600040F23053C2F200031A780AB90120187022
:10047000704700BF40F20000C2F2000008B50368F8
:100480002BB140F20003C0F2000303B1984708BD4E
:1004900083049A0C42F45021880040F00100704718
:1004A0004CF62410C0F20F00704700BFC004C30C0C
:1004B00001F01F0141EA8312900040F002007047F2
:1004C00043F20473C2F200031868182100F062B905
:1004D00070B54DF6836EC4F21B3EAEFB00164BF6B4
:1004E000C053B40CCFF6F07303FB040CAEFB0C1539
:1004F000E204D40CC5F3C43140F2213343F200725C
:1005000041EA8410C0F23403C2F200028600136094
:10051000184643F2FC6443F204754CF62413C2F20D
:100520000004C0F20F03C2F2000546F002061821D3
:100530002E60236000F02EF920681821BDE870407D
:1005400000F028B908B500F013F940F2A01340F606
:100550000522C4F20503C0F201021A6008BD00BF03
:100560000621F0B580F82210232180F825101021F3
:1005700080F82610202180F82710302180F82810DC
:100580004AF6C00C652189B080F82A1000256E213A
:10059000C0F2012C41F68D5240F2356380F82B10E9
:1005A00080F8235080F82450C0F20002CDF81CC01F
:1005B000C0F2000340F2016743F6F9464AF6C00C68
:1005C000426183616FF07F4EC0F2011C044607A9AF
:1005D00006AA05ABC0F20007C0F20006CDF818E08D
:1005E000CDF814C001970296009501F037FF204620
:1005F00001F0D2FF204601F0FDFF284609B0F0BD12
:10060000322140F2DC5310B5038480F829100446EF
:10061000FF2005F0FBFF04F005FE20F4017040F020
:10062000A30005F05BFF04F1230005F00DFA0020A4
:1006300010BD00BF70B50E46ADF5006D59B10C464A
:100640006D4628466168628907F04AF86389246824
:10065000ED18002CF5D1318968464FF0FF3205F0D6
:1006600061FC58B147F2A451C2F200010B8800208E
:100670005A1C0A8040B20DF5006D70BDFF20F9E7ED
:10068000F0B5ADF5805D81B04FF480516846002231
:1006900005F0A0FB81B26E4629B90F46384601B07D
:1006A0000DF5805DF0BD0320024602F035FA0746E5
:1006B000A8B16E460446002560687119628907F08A
:1006C0000FF863892468ED18ADB2002CF4D147F21D
:1006D000A450C2F2000041884A1C4280DEE747F283
:1006E000A453C2F200039A89D9880132481CD880E9
:1006F0009A81D3E770B50546FFF7C2FF044628B1DB
:10070000294601F001F910F0FF0F00D170BD20461D
:10071000BDE8704002F08AB922B9036823EA0101FA
:1007200001607047026822EA010343EA01010160A7
:10073000704700BF026822EA01030B430360704761
:10074000026822EA01030360704700BF036801EA00
:10075000030212F0FF0F23EA010306BF19430160F1
:1007600003607047026801EA0200C0B2704700BF30
:1007700040F2001340F28010C4F20503C4F20500F9
:1007800005211A4642F8041B5960131D8342F8D113
:10079000704700BF70B5013901248C40054640F216
:1007A000A010C4F205004FF48071FFF7C9FF40F2BA
:1007B000A010C4F205004FF40071FFF7C1FFECB1C7
:1007C0002C4240F2A0100CBF00220122C4F205000E
:1007D0004FF48061FFF7A0FF40F2A010C4F20500C3
:1007E0004FF48071FFF7A6FF40F2A010C4F205009D
:1007F0004FF48071FFF7A4FF6408E1D140F2A0102C
:10080000C4F205004FF40071BDE87040FFF792BFDD
:1008100040F23853C2F20003D3E90001704700BF31
:1008200040F23853C2F200039A6803EB4020511C97
:100830009960C260704700BF40F23853C2F20003B3
:10084000F0B4D3E90067D3E90045A41B65EB0705C5
:10085000A04271EB0502F6D2F0BC704708B540F239
:1008600000030022C4F2F00306F0D0FC06A3D3E993
:10087000002306F0F5FD06F0DBFE40F20C0300B2AB
:10088000C4F20503186008BD0000000084D787414A
:1008900040F208030B2828BF0B20C4F205031860A0
:1008A000704700BF40F23853C2F2000393F80C26A1
:1008B0008AB1002183F80C1693F80D0645F25652C2
:1008C000411CC5F2555282FB010C0CEB4C02881AFC
:1008D000C1B283F80D16704740F23853F0B4C2F23B
:1008E00000030126D3E900450027A41945EB0705BD
:1008F00045F200014EF20012C3E90045C4F20001C6
:10090000CEF2000201204FF480130861C2F880315A
:10091000F0BC7047F8B506F0CBF94EF20012CEF2FB
:1009200000024FF4801542F20004C2F88050CEF26B
:100930000404266B45F2000140F20003C4F20A23CE
:100940000020C4F2000126F0400C40F210070126FE
:10095000C4F830C0C2F200074865C3F88001C3F88C
:100960008801C3F884010E61C2F880513C6844F6E6
:10097000D350C1F26200A0FB04C080094860C3F8F4
:100980008061C3F888611560F8BD00BF10B504F040
:10099000E5F8002003460A2143F2082204F01CF97E
:1009A00040F6A5510020C0F2000104F07BFA0020BF
:1009B000BDE8104004F092BA2DE9F041FFF788FD40
:1009C00040F23851C2F200010F260027D1E900455C
:1009D000D1E90023121B63EB0503964277EB03007A
:1009E000F6D2BDE8F041FFF76BBD00BF2DE9F04F37
:1009F000804685B08A46002900F0C88040F208048D
:100A0000C2F20004237840F238565D1EEBB2237028
:100A1000C2F2000600784F1E40F20C0140F2080BB3
:100A20009A19C4F2050182F810060391C4F2050B6D
:100A300007F0010706F5C269002B00F0AA80012526
:100A4000554580F2A3807FB12278531ED8B2207022
:100A500018F805C0811981F810C6002800F0C4807C
:100A60000135554580F2928037460EE02278531EBC
:100A7000DDB2257018F806C0E81980F810C6002D00
:100A80004DD0751C554580F2818023786E1C5A1E0E
:100A9000D0B2207018F805C0C11981F810C600281E
:100AA000E4D1D9F8010006F04BFB0B4640F2385177
:100AB0000246C2F20001D9F8050091F810560292E0
:100AC0000193FFF779FF0299019B0846194640F20E
:100AD00000030022C4F2F00306F098FB5CA3D3E904
:100AE000002306F0BDFC06F0A3FD039A00B21060DF
:100AF0000B2D28BF0B2540F20800CBF80050C2F2A6
:100B000000004FF0090505702278531EDDB22570F4
:100B100018F806C0E81980F810C6002DB1D1D9F830
:100B2000010006F00DFB0B4640F238510246C2F2BE
:100B30000001D9F8050091F8105602920193FFF7D1
:100B40003BFF0299019B0846194640F20003002230
:100B5000C4F2F00306F05AFB3DA3D3E9002306F0EC
:100B60007FFC06F065FD039A00B20B2D28BF0B2514
:100B7000106040F20800CBF80050C2F200004FF0C5
:100B800009050570751C5545FFF67FAF05B0BDE83A
:100B9000F08FD9F8010006F0D3FA0246D9F8050023
:100BA00096F8105602920191FFF706FF0299019BF9
:100BB0000846194640F200030022C4F2F00306F092
:100BC00025FB23A3D3E9002306F04AFC06F030FD01
:100BD000039A0B2D28BF0B2500B21060CBF80050F4
:100BE0004FF0090525702AE7D9F8010006F0A8FAA8
:100BF0000B4640F238510246C2F20001D9F8050016
:100C000091F8107602920193FFF7D6FE0299019BAC
:100C10000846194640F200030022C4F2F00306F031
:100C2000F5FA0BA3D3E9002306F01AFC06F000FD49
:100C3000039A00B240F2080310600B2F28BF0B2765
:100C40004FF00900C2F20003CBF80070187007E7FC
:100C50000000000084D7874140F20801C2F2000181
:100C60004878064B40F2000103EB4022C4F2050134
:100C7000043200207F2304F059B800BF440500204F
:100C80002DE9F04F8DB0FFF781FEFFF743FE40F2F4
:100C90000C0040F20803C4F205000121C4F2050370
:100CA00040F2385403220160C2F200041A604FF08F
:100CB00001084FF00009D4E90001D4E90023121A19
:100CC00063EB010340F23856904579EB030CC2F216
:100CD0000006F2D2FFF736FC43F68060C1F66410DE
:100CE000FFF76AFE01F0FCF86846FFF739FC4BF6A7
:100CF000FF7000F085F88146FFF7AEFF96F8197691
:100D000006F10C0808EB472540F20001C4F205018A
:100D10002A1D00207F2303F093FFB0460027002602
:100D200041F2883A4FF0000BD4E90023921B63EBA9
:100D3000070392457BEB03012AD36846FFF7DAFCF1
:100D400094F80DC694F819269445EDD098F80C3611
:100D5000002BE9D1B9F814104FF40072484600296D
:100D6000E2D04FF0010588F80C5698F80DE6DFF850
:100D700030C00CEB4E2100F08BF8FFF793FDD4E967
:100D80000023921B63EB070392457BEB0301D4D254
:100D900016EB0A0647EB0B0700F040FCCDE700BF5F
:100DA0004405002010B440F23853C2F2000393F817
:100DB0001926986803EB422140F20802C860C2F28B
:100DC000000292F801C045F2565183F819C65478D2
:100DD000C5F2555104F1010C81FB0C4101EB4101BD
:100DE00093F80D46C1EB0C0C5FFA8CFC0130A44566
:100DF000986018BF82F801C010BC2DE7AFF30080E7
:100E000038B5054602F06EF9044608B9204638BDEB
:100E100048F2B4412A46C0F2000102F0D9F8C2B249
:100E200012B10024204638BD40F66161C0F20001D5
:100E3000204602F053F9E9E770B514465AB15189DA
:100E400049B1154601E0698929B16868FFF7CEFD0F
:100E50006D68002DF7D12046BDE8704001F0E6BD79
:100E600070B582B0BDF818500C461E460095FFF7CD
:100E7000E3FF336840F639612046C0F200010022EA
:100E8000A582636002B0BDE8704002F027B900BFE0
:100E90002DE9F041054616468846002091B203220E
:100EA000AF8A01F039FE044688B1324641464068B7
:100EB00006F016FC2A1D21463B46284602F0DAF9C8
:100EC000C5B2204601F0B2FD68B2BDE8F081FF2551
:100ED00068B2BDE8F08100BF2DE9F04F40F658340C
:100EE000C2F20004A37B83B0D3F1010238BF002219
:100EF0000546002A40F0F4806BB130B106686068A6
:100F0000864208BF934600F0E680012B00F0D681B0
:100F1000022B00F06B8200220A2090469146834605
:100F20000190A67F40F65833C2F20003002E40F035
:100F3000548393F82E6094464746CA4601237EB1F7
:100F400045B1D5F80080626A904508BF4FF0020BAA
:100F500000F0C180012E00F0C281022E00F04E820E
:100F60006246B846D14694F83E6040F65837D6F10E
:100F7000010C38BF4FF0000C0A2B14BF4FF0000CCF
:100F80000CF0010CC2F20007BCF1000F00F0DE8093
:100F900097F84E6094464746CA4603237EB145B152
:100FA000D5F80080626C904508BF4FF0040B00F04C
:100FB0009280012E00F0B581022E00F03382664649
:100FC000B846D14694F85E2040F65837D2F1010C6D
:100FD00038BF4FF0000C0A2B14BF4FF0000C0CF080
:100FE000010CC2F20007BCF1000F00F0DD8097F8A1
:100FF0006E20B4464746CA46052372B13DB1D5F8C6
:101000000080666EB04508BF4FF0060B63D0012A22
:1010100000F0A981022A00F01B826646B846D1463C
:1010200094F87E2040F65837D2F1010C38BF4FF0CB
:10103000000C0A2B14BF4FF0000C0CF0010CC2F294
:101040000007BCF1000F00F0DD8097F88E20B44659
:101050004746CA4607237AB145B1D5F80080D4F88F
:101060008460B04508BF4FF0080B34D0012A00F06F
:10107000AB81022A00F0028262463E46D04694F8D6
:101080009EC040F65837DCF1010A38BF4FF0000A25
:101090000A2B14BF4FF0000A0AF0010AC2F200073F
:1010A000BAF1000F00F0D580092311F0020F40F0D3
:1010B000EE800A2B1CBF5FFA83FB4FEA4B0300F064
:1010C000F3811DB1296804EB0B125160581C04EB2D
:1010D000C0040023E3714FFA8BF003B0BDE8F08F3A
:1010E00000220A20A67F904691461346834601902F
:1010F00076B13DB1D5F800C06769BC4508BF4FF077
:10110000010BE8D0012E00F0C580022E00F0808196
:1011100094464746CA4694F82E6040F65832D6F1B7
:10112000010838BF4FF000080A2B14BF4FF0000829
:1011300008F00108C2F20002B8F1000F3FF4FFAE60
:1011400092F83E60B8466246D146022376B13DB180
:10115000D5F800C0676BBC4508BF4FF0030BBAD091
:10116000012E00F0CD80022E00F0678194464746A4
:10117000CA4694F84E6040F65832D6F1010838BF9E
:101180004FF000080A2B14BF4FF0000808F00108C8
:10119000C2F20002B8F1000F3FF400AF92F85E20F7
:1011A0006646B846D146042372B13DB1D5F800C0B9
:1011B000676DBC4508BF4FF0050B8CD0012A00F0CD
:1011C000C180022A00F04F81B4464746CA4694F8CF
:1011D0006E2040F65836D2F1010838BF4FF00008B3
:1011E0000A2B14BF4FF0000808F00108C2F20006F5
:1011F000B8F1000F3FF401AF96F87E20B84666467E
:10120000D14606237AB145B1D5F800C0676FBC4519
:1012100008BF4FF0070B3FF45EAF012A00F0B48027
:10122000022A00F03681B4464746CA4694F88E201A
:10123000D2F1010638BF00260A2B14BF002606F0A3
:101240000106002E3FF407AF62463E46D046082313
:1012500015E7BCF1000F3FF428AF4DB1D7F89470FB
:10126000D5F800A0BA4508BF4FF0090B3FF433AFE3
:10127000BCF1010F00F09980BCF1020F7FF415AFB3
:1012800094F89FC0B44528BF4FF0090B0DE74FF00D
:10129000FF0B20E7D4F810C040F65837C2F2000721
:1012A000BCF1000F00F0268197F81FC0944522BFC3
:1012B0004746CA463046BFF42EAF29E7226840F6BB
:1012C0005833C2F20003002A00F0568100204FF08C
:1012D0000A0BDA7B80468146CDF804B021E6266A07
:1012E00040F65832C2F20002002E00F0398192F826
:1012F0002F2094453FF634AEB846D146022032E660
:10130000276B40F65836C2F20006002F00F01E810F
:1013100096F83FC062453FF629AF4746CA460320CC
:1013200027E7266C40F65832C2F20002002E00F089
:10133000018192F84F60B4453FF641AEB846D146C0
:1013400004203FE6276D40F65832C2F20002002F1B
:1013500000F0DA8092F85FC066453FF635AF474649
:10136000CA46052033E7266E40F65832C2F2000224
:10137000002E00F0D38092F86F60B4453FF64DAE7A
:10138000B846D14606204BE6276F40F65832C2F2E7
:101390000002002F00F0F78092F87FC066453FF60C
:1013A00042AF4746CA46072040E7D4F8907040F65F
:1013B0005836C2F20006002F00F0FB8096F89FC05E
:1013C000944528BF092070E6D4F8806040F6583272
:1013D000C2F20002002E00F0E08092F88F206245F9
:1013E000FFF44AAE3E46D046082048E600220A20D6
:1013F00094F80F8091469346019092E594F82F80DF
:1014000047459EBF6246D146B3467FF6ACADA7E5E1
:10141000E77F474522BF9446CA464FF0010BBFF411
:101420007AAE75E694F84F8047459EBF6646D14632
:101430004FF0040B7FF6C6ADC1E594F83F70474509
:1014400022BF9446CA464FF0030BBFF492AE8DE61E
:1014500094F86F8047459EBF6646D1464FF0060B15
:101460007FF6DEADD9E594F85F70B8459EBFB4460F
:10147000CA464FF0050B7FF6AAAEA5E694F88F603A
:10148000B7429EBF6246D0464FF0080B7FF6F7ADDD
:10149000F2E594F87F70B8459EBFB446CA464FF057
:1014A000070B7FF6C3AEBEE611F0010F3FF4EFAEBF
:1014B0004FFA8BF30A2B18BF5FFA8BFB06D1019909
:1014C0004AB20A2A18BF5FFA81FB7DD04FEA0B1798
:1014D000385940F65836C2F2000618B101F0A6FAA3
:1014E0000020B8514FEA4B03581C04EBC002002106
:1014F0009171E6E597F81FA0CA4522BF944647467A
:101500000196BFF408AE03E692F85FA0D1453FF61E
:101510005BAEB44605264746019658E692F86F90B2
:10152000CA453FF67AAD66464FF0060CB846CDF890
:1015300004C075E592F84F90CA453FF640AD664647
:101540004FF0040CB846CDF804C03BE596F83FA038
:10155000D1453FF60BAE944603224746019208E67A
:1015600092F82F90CA453FF6FBAC62464FF0020C52
:10157000B846CDF804C0F6E40A2093F80F909046E0
:1015800083460192CDE492F87FA0D1453FF64BAE61
:101590000722B4464746019248E692F88F80C2453A
:1015A0003FF66AAD4FF0080A62463E46CDF804A009
:1015B00065E596F89F20DDF804C0424528BF4FF04E
:1015C000090CCDF804C070E54FFA80FBBBF10A0F9F
:1015D0003FF45DAE5FFA80FB78E70A2388E500BF41
:1015E00038B50846022114461D46FFF775FC40B287
:1015F000002802DA4FF0FF3038BD40F65833C2F20F
:10160000000303EB0012083291790229F2D103EBB7
:1016100000110B1D22602B6038BD00BF38B540F6AD
:101620005834C2F20004A37B93B1E07B421CD2B2D7
:10163000EF2AE27340F20E81206840F65835C2F27C
:10164000000518B101F0F2F9002129600023A3730D
:10165000A27F40F65833C2F2000392B1D97F481CF2
:10166000C1B2EF29D97740F21E81206940F6583582
:10167000C2F2000518B101F0D9F900232B61002254
:10168000A27794F82E2040F65833C2F20003AAB194
:1016900093F82F10481CC1B2EF2983F82F1040F2A5
:1016A000FB80206A40F65835C2F2000518B101F0FF
:1016B000BDF900232B62002284F82E2094F83E20EE
:1016C00040F65833C2F20003AAB193F83F10481C09
:1016D000C1B2EF2983F83F1040F2F380206B40F64F
:1016E0005835C2F2000518B101F0A0F900232B63B0
:1016F000002284F83E2094F84E2040F65833C2F27F
:101700000003AAB193F84F10481CC1B2EF2983F827
:101710004F1040F2CF80206C40F65835C2F20005E1
:1017200018B101F083F900232B64002284F84E20C5
:1017300094F85E2040F65833C2F20003AAB193F841
:101740005F10481CC1B2EF2983F85F1040F293800C
:10175000206D40F65835C2F2000518B101F066F967
:1017600000232B65002284F85E2094F86E2040F65A
:101770005833C2F20003A2B193F86F10481CC1B2F3
:10178000EF2983F86F1071D9206E40F65835C2F2F8
:10179000000518B101F04AF900232B66002284F8F5
:1017A0006E2094F87E2040F65833C2F20003A2B1B6
:1017B00093F87F10481CC1B2EF2983F87F1066D9D7
:1017C000206F40F65835C2F2000518B101F02EF92D
:1017D00000232B67002284F87E2094F88E2040F6A8
:1017E0005833C2F20003B2B193F88F10481CC1B253
:1017F000EF2983F88F1045D9D4F8800040F658358A
:10180000C2F2000520B101F011F90023C5F88030C3
:10181000002284F88E2094F89E2040F65833C2F2BD
:101820000003B2B193F89F10481CC1B2EF2983F8AE
:101830009F1016D9D4F8900040F65835C2F2000532
:1018400020B101F0F3F80022C5F89020002384F8BD
:101850009E3038BD012B7FF4FBAE012A3FF6ECAE83
:10186000F6E6012AF5D10129E4D8F2E7012A98D158
:10187000012989D895E7012A7FF477AF01293FF63E
:1018800067AF72E7012AC6D10129B5D8C3E7012A9B
:10189000A3D1012994D8A0E7012A7FF40FAF012931
:1018A0003FF6FFAE0AE7012A7FF4EBAE01293FF6CF
:1018B000DCAEE6E6012A7FF43BAF01293FF62BAF11
:1018C00036E7012A7FF417AF01293FF607AF12E789
:1018D0002DE9F0414C68062607460D46904619460C
:1018E0003246204605F0FCFE41463246A01905F07E
:1018F000F7FE002108206173207329463846BB6932
:10190000984740B2BDE8F0812DE9F04F44688FB0B0
:10191000237B627B054643EA0223082B0E4613D045
:10192000B3F5C16F20D047F2A450C2F20000028D7F
:10193000C38B0132591CC1830285284601F076F819
:1019400000200FB0BDE8F08F91F8291011F0200FA2
:10195000F3D06FF00D0100F091FE0028EDD1284684
:10196000314602F0C9F9EBE791F829C01CF0200FCD
:10197000E3D0B0F80AE0BEF1290F1CD904F10E083B
:1019800094F80EC098F801E04CEA0E20B0F5807F84
:1019900003D198F80430062B1AD047F2A453C2F2B0
:1019A0000003D88B1A8D411C01322846D9831A8531
:1019B00001F03CF8C4E747F2A453C2F200035A8C8A
:1019C000D98B01320131D9835A8401F02FF8B7E75E
:1019D00098F80570042FE0D198F8020098F80320D9
:1019E00040EA02210829D8D147F2A45AC2F2000ADB
:1019F000BAF81A1004F11C000DF134094B1C0590C3
:101A000001463A46484604F1260BAAF81A30CDF8AA
:101A10001CB005F065FE3A460CA8079905F060FE7B
:101A2000736813B30C9F04F1160BBB4240F09E8009
:101A3000012304931F460D9806F1230CCDF818C01E
:101A4000002847D198F806C098F807204CEA0223EE
:101A5000B3F5807F0ED0B3F5007F3FF46EAFBAF8D8
:101A60002C30581CAAF82C0067E7049304F1160BDD
:101A70000227E0E7049B002B3FF45FAF022000F059
:101A80000BFA010A88F8071088F806000599042265
:101A9000079805F025FE311D0422059805F020FE6B
:101AA0005946062208F1120005F01AFE5946062290
:101AB000204605F015FE06990622584605F010FE50
:101AC00006990622A01D05F00BFE3046B269294694
:101AD000904732E7314602F03FFA08900028B1D132
:101AE0000D9800F0F00EBEF1E00FABD0394648463D
:101AF000FFF7F2F947B2002FA4DB780040F658391F
:101B0000411CC2F2000909EBC1030DF1280C4FF092
:101B1000020E0991604683F806E008F108010622EA
:101B20000393CDF808C005F0DBFDDDF808C09CE8A4
:101B300003004FEA071C5CF809700197099F49F8F8
:101B40003700039B089A9980DA71019B002B3FF4C0
:101B500079AF089F19463046069A5B464CF80970E3
:101B6000FFF7B6FE019800F061FF6BE700220492D8
:101B7000022760E72DE9F84F002280468B460320BC
:101B80002A2100F0C9FF8246002856D0446801206F
:101B900000F082F904F10E060627C0F30F2508F1C4
:101BA00023094946F571B0713A4604F1160005F073
:101BB00097FD002504F1200348F2844184F8205069
:101BC000C0F200015D715D709D70DD701D713A465F
:101BD000204605F085FD49463A464FF00409E019D4
:101BE00005F07EFD08EB09014A4604F11C0005F0F2
:101BF00077FD4A46594604F1260005F071FD08209C
:101C00000121A5737170B07086F80590F570377179
:101C100020736773D8F8184051464046A04747F2F2
:101C2000A453C2F200031A8BC4B2511C504619834C
:101C300000F0FCFE60B2BDE8F88F47F2A453C2F298
:101C40000003988CFF24421C9A84F3E72DE9F047A7
:101C500082460F46086882B05146144602F07CF96D
:101C600028B16FF00B08404602B0BDE8F0873B6832
:101C700003F0F002E02AF4D0002BF2D00121384624
:101C8000FFF72AF9C6B24FFA86F8B8F1000F38DB31
:101C900040F658354FEA4809C2F2000509F1010C37
:101CA00005EBCC039A79002A27D0012A14BF002122
:101CB0000121D4F1010338BF0023194310D1FF20C3
:101CC000022A28D0012A08BF234602D04FFA80F802
:101CD000C9E7002B53D0187B01282AD11B68F8E7ED
:101CE000394650460193FFF745FF019AC0B2002ADA
:101CF000ECD105EBC9039A7BE2E7012211469A7108
:101D0000D7E7002CAFD047F2A453C2F20003998C5E
:101D1000481C9884A7E709F1010E504605EBCE0355
:101D200021460AF1230285F8A06002B0BDE8F04721
:101D3000CEE519890320002200F0EEFE0646A0B190
:101D4000214600F021FE10F0FF0F0BD14FEA0818DA
:101D500058F8050008B100F069FE48F805604FF03A
:101D6000000880E7304600F061FE47F2A453C2F25B
:101D700000039A8C4FF0FF38511C998473E720467A
:101D800000F0CAFC002CF0D02646DFE770B50D4607
:101D9000044682B00E212846164600F06FFC00284B
:101DA00058D13068214602F0D7F8034600282ED1DA
:101DB000326802F0F000E02835D06168A36882EA5A
:101DC000010C1CEA030F05D01FFA82FE4FF6A96032
:101DD00086455AD140F65832C2F2000292F8A0105D
:101DE00002EB0113083393F806C0BCF1020F05D1D2
:101DF00002EB011250683168814234D020463146EE
:101E00002A46FFF723FFC0B240B202B070BD48F2CD
:101E10008443C0F200032046294604F12302FFF761
:101E200057FDC0B2F0E78DF8013001205E238DF838
:101E300002308DF8000071786B4601F07F028DF85A
:101E4000032096F802E08DF804E096F803C08DF8C0
:101E500005C0E0E747F2A453C2F200035989FE200F
:101E60004A1C5A81D0E747F2A456C2F20006B6F8DF
:101E70002EC020460CF1010E294604F12302A6F8DB
:101E80002EE0FFF725FDC0B2BEE7E26804F10C06C4
:101E9000002A9FD1FC20B7E7030A43EA002080B262
:101EA000704700BF030A43EA002080B2704700BFBA
:101EB000030643EA106100F47F4241EA022300F482
:101EC0007F0043EA10207047030643EA106100F4E4
:101ED0007F4241EA022300F47F0043EA102070476A
:101EE00010B500F0B5FF00F009F800F0C3F900F0FC
:101EF000B3FABDE8104001F033B800BF30B4114C64
:101F000040F6FC3224F003034FF47A504FF0000CFB
:101F1000C2F2000247F2A4541918A3F802C0936059
:101F2000C2F2000483F804C065464FF0010C81F84A
:101F300004C0188048801360A4F8900051600880A5
:101F400030BC70470B3700202DE9F0050346002810
:101F500060D040F6FC32C2F200021168884250D3D1
:101F60005568A8424DD208384FF0000C80F804C0E4
:101F7000976847F2A454C2F20004B84233F808CC80
:101F8000B4F892608FB2C7EB0008CCEB060A1FFAD8
:101F900088F801EB0C0638BF9060C244B042A4F848
:101FA00092A014D0347994B9B54210D0956840F617
:101FB000FC34C2F20004AE4208BFA06031F80C400D
:101FC00023F8084C31F80C400C19A4F80280B0F842
:101FD00002C001EB0C04A0421CD02579D5B995684C
:101FE00040F6FC32A84233F8080CC2F2000221F895
:101FF0000C0008BF946033F8082CE41B89184C804F
:1020000008E047F2A453C2F20003B3F89800421C60
:10201000A3F89820BDE8F005704700BF4FF6FC73A9
:102020000331C0F2000301EA03030B2B2DE9F00793
:1020300016D80C2340F6FC32C2F200021168884226
:1020400002D35468A04210D347F2A453C2F2000353
:10205000B3F898104A1CA3F89820BDE8F007704721
:10206000B3F57A5FE6D90020F7E7A0F1080630F86B
:10207000085C741AA4B2A5F1080CC4EB0C0C1FFA8E
:102080008CFC9C45EFD36345E7D04F1997F804804B
:10209000B8F1000F28D104F1080A03EB0A08D2F8BE
:1020A000089031F805A01FFA88F801EB0805B9453A
:1020B000A5F800A0A6F8008008BF95602A88002631
:1020C000B2F57A5F2E716C8002D08A18A2F8028075
:1020D00047F2A452C2F20002B2F89210CCEB010C0B
:1020E0006344A2F89230B8E703F114056545B4D80B
:1020F00004F10807DD19ADB2D2F808804F19474541
:1021000038BF976032887C804A5335804A5B002410
:10211000B2F57A5F3C71DBD08A185580D8E700BFF2
:102120002DE9F00518B90020BDE8F00570474FF61D
:10213000FC7CC31CC0F2000C03EA0C0CBCF10B0FBE
:102140009CBF43F674654FF00C0C04D9BCF57A5F64
:10215000E9D8CCF57A5540F6FC38C2F20008D8F838
:102160000010D8F808701FFA81FACAEB070083B292
:102170009D4209DC0EE0CA5AA2F10806F61A66452D
:1021800013D2AA4206DA1346C8180479002CF2D0FA
:10219000CA5AF6E747F2A453C2F20003B3F89620F6
:1021A0000020511CA3F89610BEE70CF11405B542AF
:1021B00038D80CF108069D19ADB24A5305804E5B24
:1021C0004A19147153800122B6F57A5F027101D069
:1021D0008E19758047F2A453C2F20003B3F892201F
:1021E000B3F894400832624492B29442A3F8922029
:1021F00001D2A3F89420874201D0083094E73B79BC
:10220000002BFAD0D8F80420974202D1F5E7BA4261
:102210001DD03F88CF193B79002BF8D1C8F8087042
:10222000083081E7012447F2A4530471C2F200038D
:10223000B3F89240B3F894C012195244121A92B2F1
:102240009445A3F89220D6D2A3F89420D3E7C8F8F7
:102250000820083068E700BF38B500FB01F5A8B2D8
:10226000FFF75EFF044618B12A46002105F000FB87
:10227000204638BD47F2A453C2F200032DE9F00F07
:102280004FF01005A3F8D6504FF000054FF0000CAA
:102290004FF000044FF000004FF0040B4FF004012A
:1022A0004FF00502A3F8BA50A3F8BC50A3F8BE50F3
:1022B0003D4D002648F29449A3F89CC0A3F89EC067
:1022C000A3F8A0C0A3F89AB04FF00F0C4FF0000B8A
:1022D000A3F8A640A3F8A840A3F8AA40A3F8A41026
:1022E000A3F8B0004FF00001A3F8B200A3F8B400C7
:1022F000A3F8AE204FF003044FF000024FF010009F
:10230000DFF8AC80A3F8B8C0A3F8C4B0A3F8C6B097
:10231000A3F8C8B0C0F20009A3F8C240A3F8CE10D9
:10232000A3F8D010A3F8D210A3F8CC00A3F8D820BB
:10233000A3F8DA20A3F8DC2025F00305B446B34661
:1023400039F8064048F80CB02CB3184F0121BA5B9D
:102350000023AF1804F1FF3A8C422B600AEA010A0D
:1023600028463B4610D9BAF1000F05D00221BB1810
:102370008C423D60384607D99F18023118609B5047
:10238000BB188C423846F7D8611E02FB015002FB95
:10239000045548F80C000CF1040C0236BCF11C0F7B
:1023A000CED1BDE8F00F70470B0C0020A4840000D4
:1023B00034360020062810B423D842F6F853C2F26F
:1023C00000034FEA800C6344D3F83C28DAB147F2AB
:1023D000A4510CEB0004C2F2000101EB4400B0F880
:1023E0009C10B0F89EC0013189B214688C45C3F8C6
:1023F0003C48A0F89C1038BFA0F89E10104610BCB6
:1024000070470020FBE747F2A4536044C2F2000388
:1024100003EB4003B3F8A010481CA3F8A000EDE7BD
:102420000B46C1B14FEA800C47F2A4516044C2F29E
:10243000000142F6F85201EB4001C2F20002624490
:10244000B1F89CC0D2F83C080CF1FF3C1860A1F830
:102450009CC0C2F83C387047704700BF70B5049EFE
:102460000446002543F25060C2F2000084F829506F
:10247000E6616560A560E56090F800C084F82CC056
:102480000CF1010E80F800E006982061084601B1C9
:102490000868606002B11268A26003B11B68E36063
:1024A0002046059B984710F0FF0F08D147F29C513A
:1024B000C2F200010A68204622600C6070BD002450
:1024C000204670BD10B40C4601B10C68446002B1E6
:1024D0001268826003B11B68C36010BC704700BF04
:1024E0000346F8B190F8292047F29C5112F0010FF1
:1024F0001CBF22F0010280F82920C2F200010A6804
:10250000824214D012B90DE00A4661B111689942B5
:10251000FAD11968116047F2A052C2F200021068A5
:10252000984201D0704770470023136070470068DD
:102530000860F0E7034600B9704747F29C52817883
:10254000C2F200021068A1F1300C5FFA8CFC80B17D
:1025500090F82C10614509D190F82A201978914201
:1025600004D190F82B205978914202D000680028BD
:10257000EED170470B4601B10B684360704700BF56
:102580000B4601B10B68C360704700BF0B4601B139
:102590000B688360704700BF47F2A053C2F200038C
:1025A0001860704790F8293013F0010F1CBF23F01A
:1025B000010380F82930704790F8293013F0100F8C
:1025C0001CBF23F0100380F82930704790F82930A1
:1025D00013F0100F09D143F0100313F0010F80F82E
:1025E000293002D013F0200F00D17047011DFFF7F2
:1025F000C1BA00BF90F8293013F0010F07D143F0A2
:10260000010303F03002302A80F8293000D07047EF
:10261000011DFFF7AFBA00BF30B4029CBDF80CC07B
:10262000032803D8DFE800F024211C05002030BC7B
:102630007047002528466D186545F7DB00251D60AD
:10264000CCB12018033020F00300586002201A7328
:102650004FF00102587359811981DA811846E6E773
:102660000E20C51C25F00305E5E714200E30F8E721
:1026700028200E30F5E75C60E8E700BFD0F10103E9
:1026800038BF0023002908BF43F0010310B4E3B9A9
:102690000029A8BF1FFA81FC20DB037B4468D3F12B
:1026A000010238BF0022032B08BF42F001027AB1B9
:1026B000631A00F1100C6345436017D34289038904
:1026C00089B2CB18891803814181002010BC704762
:1026D000013B9AB2012A0CD90120F7E7C1F1000CA5
:1026E00042891FFA8CFC6245D7D2F5E7446001208D
:1026F000ECE70029F0DA42896245EDD3641A4460C0
:10270000DCE700BF034630B100201B680130C0B2D7
:10271000002BFAD170477047034610B1C089421CA4
:10272000DA817047D0F1010338BF0023002908BFC8
:1027300043F001037BB9036843B10289B1F808C0D3
:102740006244028118461B68002BF6D10A8903896E
:102750000160D11801817047D0F1010338BF002317
:10276000002908BF43F001037BB9036843B1028924
:10277000B1F808C06244028118461B68002BF6D1EC
:102780000A8903890160D318038111B1CB89581CD0
:10279000C8817047034658B14289914203D209E08B
:1027A0005A898A4206D81B68891A89B2002BF7D148
:1027B000002070475B68585C704700BF2DE9F0014E
:1027C000044658B14689B14203D20CE066898E4274
:1027D00009D82468891B89B2002CF7D14FF6FF7005
:1027E000BDE8F0017047E3B10027B846B1421ED3FF
:1027F00035468C46204602E04589AC4519D3006831
:10280000C5EB0C0C1FFA8CFC0028F5D112F807C0A0
:10281000844508D101371FFA87F80131434589B251
:10282000E4D80020DCE708F1010080B2D8E78C464C
:102830002046406810F80C00E8E700BF2DE9F041A1
:10284000078915469A1897420646884614DB7F1B6F
:10285000BFB29F4210D31C4602E09CB2A7420BD3EA
:102860002B46214630464246FFF7A8FF2318002892
:10287000F3D12046BDE8F0814FF6FF742046BDE855
:10288000F08100BF70B505460C4671B10B7863B19D
:1028900002894FF6FF70824207D0084605F096F98C
:1028A0004FF6FE718842024602D94FF6FF7070BDA6
:1028B0002846214692B20023BDE87040BEE700BF23
:1028C0002DE9F0410C46054600B119B9002040B28F
:1028D000BDE8F0810389934217D3002AF6D016464B
:1028E0004FF000086F896868BE4238BF3746F61B54
:1028F00004EB08013A46B844B6B204F0F1FE1FFA00
:1029000088F82D68002EEDD1E0E7F420DFE700BF66
:102910002DE9F8450D461446064600282FD000291B
:102920002DD0002A2BD04FF0000AD0460EE0778938
:102930009F4210D8DB1B9BB23668321E18BF0122A3
:10294000002C0CBF002202F00102D2B105EB0800FE
:10295000002BECD17789FF1A7168BFB2A74228BF5C
:10296000274659183A46E41BBA44B84404F0B8FE66
:10297000A4B21FFA8AFA1FFA88F80023DCE74FF0A6
:10298000000A5046BDE8F8852DE9F041D0F1010676
:1029900038BF0026002908BF46F0010605460C4650
:1029A0001EB1F42040B2BDE8F08102890B899A4241
:1029B000F7D337466989B4F80A80C81BC6EB080804
:1029C000404562686B68ACBF1FFA88F81FFA80F850
:1029D000B118F818424604F083FE47446989BFB233
:1029E00060894644B942B6B204BF2D680027B042A0
:1029F0009CBF246800262CB1B4F80AC0B4F808E0E3
:102A0000F44508D01DB168892B89984208D0002C64
:102A1000D0D12046C6E72268002AF3D0FA20C1E7C9
:102A200029680029F3D0FA20BCE700BF38B5014679
:102A300000282BD00025CB895A1E90B2C88108B13E
:102A4000284638BD4A7B0B7B12F0020F03F1FF3C96
:102A500008460C681FFA8CFC0DD1032B12D0BCF178
:102A6000010F0BD9FFF770FA0135EDB22146002CAA
:102A7000E1D1284638BD0B699847F5E70520FFF7F7
:102A8000CFFCF1E70620FFF7CBFCEDE70546284633
:102A900038BD00BF10B5046864B1038941895A1A72
:102AA00000232281036001812046FFF7BFFF002839
:102AB00018BF0024204610BD38B503898B4229D9A0
:102AC000428991429CBF0C4605460FD9C3EB010CCD
:102AD0001FFA8CFC0C46054600E02B8963442B81D1
:102AE0002D68A41A6A89A4B2A242F6D3287B48B9F9
:102AF000A24207D06B682846E218511B89B2FFF743
:102B00008DFA054628682C816C8108B1FFF78EFF8D
:102B10000020286038BD00BF2DE9F0450C4683B089
:102B2000032803D8DFE800F0928F8D070026304697
:102B300003B0BDE8F0850025032AF7D8DFE802F0EE
:102B40005D4E4E020620FFF735FC06460028EED00B
:102B5000EA1C22F0030ACAF51477A742A8BF274649
:102B60002918BBB213310027E51A21F003004FF0FA
:102B7000030A4FF00102BD42706086F80CA0376076
:102B800034817381F28155DD344640F24F2816E0DE
:102B9000424598BF8C46CCEB0505076088BF61466F
:102BA000206080F80CA04FF001040281002D00F19C
:102BB0001000DC815F73598158601C463ADD0620A5
:102BC000FFF7F8FBAAB2034611464FF4147C002825
:102BD000DED130461E46FFF729FFA8E70520019207
:102BE000FFF7E8FB019A06460028A0D000214481A7
:102BF00001600273416004811CE005F1130CE01CCC
:102C000020F003012CF003024FF6FC765318C0F2BB
:102C1000000603EA0600FFF783FA0646002886D07E
:102C20002D181335002325F00305456044810373F7
:102C30000481036000224FF0010E7273A6F80EE0CB
:102C400075E70E2578E714250E3575E728250E352E
:102C500072E700BF38B5036804466BB1084600222E
:102C60002189FFF759FF054630B12146FFF78CFE59
:102C70002046FFF7DBFE2C46204638BD2DE9F04705
:102C800043F25468C2F20008D8F800404368824614
:102C9000201E18BF01205E7A00282ED047F29069CE
:102CA00036B2C2F20009002506E0E3682546181E88
:102CB00018BF012008B31C46207CB042F5D1206823
:102CC00047F28863C2F200032146524618B1D9F890
:102CD0000070B842E9D16769002FE6D0A069B84713
:102CE0000028E2D05DB1E2680120EA60D8F8001067
:102CF000E160C8F80040BDE8F087BDE8F08701203A
:102D0000BDE8F0870B4601B10B68036000207047F7
:102D10000B4601B10B68436000207047826141613E
:102D2000704700BF10B504460020FFF743FB034681
:102D3000C8B10022014641F8042B081D5A6040F832
:102D4000042B40F8042B40F8042B40F8042B0260BD
:102D500043F254614FF0FF301C749872C2F20001CC
:102D60000A68DA600B60184610BD00BF43F2546277
:102D7000C2F2000213680146834211D03BB1DA6807
:102D80002AB1914206D01346DA68002AF9D1002010
:102D9000FFF746BBCA68DA60002AF8D01346F3E7AB
:102DA000C3681360F3E700BF2DE9F0410C46074606
:102DB00084B0142120469046FFF760FC00282BD0F9
:102DC000002101200A46FFF7A7FE054600282DD066
:102DD0002389002B2CD1404600F066FE06460028D1
:102DE0002AD03946002F1FD03868E8B1BB7A97F84F
:102DF00010C07F7A4246284602960097CDF804C05C
:102E000000F07EFEA542C6B202D02846FFF70EFEB5
:102E100070B204B0BDE8F08120466FF01301FFF7F7
:102E20002DFC18B92546D6E7311DDFE7FF26EFE771
:102E30002146FFF791FCCEE7A54201D1FC26E7E74A
:102E40002846FFF7F3FDFC26E2E700BF021DABE7D3
:102E5000704700BF08B5FDF7DBFC43F25863C2F2D0
:102E60000003186008BD00BF2DE9F041FDF7D0FC5C
:102E700043F25865C2F200056B68074623B12C681F
:102E8000041B5A68944201D2BDE8F081D3F800C017
:102E9000D3F80C809E6804201946C5F804C0A41A13
:102EA0002F60FFF7BDFA404606B1B0476B68E8E710
:102EB00043F25862C2F20002536830B4CBB100252D
:102EC00003E01C681D46A4B123469C688442F8D1E7
:102ED000DC688C42F5D175B11A682A60196819B19D
:102EE00048685A6882184A601946042030BCFFF7C7
:102EF00097BA30BC704719685160F0E770B5044666
:102F000004200D461646FFF755FA034600281FD049
:102F100043F2586200210160C2F2000250689D60D5
:102F2000DE605C60002819D041688C4208D2091B21
:102F300018604160536070BD51688C4209D31046DF
:102F40000268641A5C60002AF6D11A60036070BDE2
:102F500070BD091B1A605160036070BD536070BD85
:102F600042F6B57108B5C0F200014FF47A70002244
:102F7000FFF7C4FF42F69971C0F2000141F28830B8
:102F80000022FFF7BBFFFDF743FC43F25863C2F298
:102F90000003186008BD00BF10B5FEF73FFB42F606
:102FA0009971C0F2000141F288300022BDE8104062
:102FB000A4E700BF10B501F003FB42F6B571C0F203
:102FC00000014FF47A700022BDE8104096E700BF80
:102FD00047F28463C2F20003F0B41C68002C42D0B4
:102FE0002546002605E0B5F812C0944512D0ED68DC
:102FF0002DB1A842F7D1ED680126002DF9D101B11C
:1030000009680160A2B1428286B9C460186070B2DA
:10301000F0BC70472F683FB131B1D1F800C0BCF1AE
:10302000000F01D06745E2D1F326F0E70026EEE776
:1030300021464FF4805247F6FF770D1E18BF012539
:10304000BA420CBF002505F0010545B14D8A9542F5
:1030500018BFC968F1D1013292B22146EDE70029CB
:10306000D1D0F326D3E72646C9E700BF438A70B51F
:1030700004460D461646E3B105B12D68237C47F2A0
:10308000846243F004032374C2F200021168656095
:10309000A68249B18C4218BF0B4602D112E09C4275
:1030A00010D0DB68002BFAD10020E16040B2146040
:1030B00070BD1A460146FFF78BFFC0B20028DBD077
:1030C00040B270BD002040B270BD00BF017C002343
:1030D00021F004020274838243607047C2618161FF
:1030E000704700BF08B50120FFF764F9034698B1A7
:1030F00000201A4642F8040B111D586041F8040BD9
:1031000041F8040B41F8040B41F8040B41F8040B9F
:103110004FF0FF3208609A72184608BD47F2846289
:10312000C2F2000213680146834211D03BB1DA6853
:103130002AB1914206D01346DA68002AF9D101205B
:10314000FFF76EB9CA68DA60002AF8D01346F3E7D1
:10315000C3681360F3E700BF2DE9F047448A84B0E9
:1031600005460F4692469846DDF8309034B922461F
:103170000146FFF72DFFC4B2002C45D13846082187
:10318000FFF77CFA002864D13E46688A7468FEF72F
:1031900083FEC0F30F2C207084F801C04046FEF778
:1031A0007BFE0021C0F30F22E270E171A070A171DB
:1031B0002B68A846002B2BD109F104083089FEF7B3
:1031C0006BFEC0F30F21617120712B7C13F0010F96
:1031D00026D06C7AAB7A4146009452461124304690
:1031E0000194CDF8089000F08BFCBE42C4B202D02E
:1031F0003046FFF71BFC47F2A453C2F20003B3F8BA
:103200007810481CA3F8780060B204B0BDE8F087DD
:10321000D9F804008342D1D0BE4215D1FA24F3E795
:10322000B6F808E05246304641461123CDF800E09A
:1032300000F0ECFB4FF6FF7C002808BF6046C0F3AF
:103240000F22E271A071C4E73046FFF7EFFBFA24CA
:10325000DAE7012008210022FFF75EFC064630B1C4
:103260003B89002B91D03946FFF776FA8DE7FF2492
:10327000CAE700BF2DE9F041074682B01046154667
:1032800088461E4600F010FC044658B138464146B8
:103290002A4633460094FFF75FFFC0B240B202B047
:1032A000BDE8F08147F2A453C2F20003B3F88610E0
:1032B000FC204A1CA3F88620F0E700BF838A021D89
:1032C000D8E700BF2DE9F04F47F2A454C2F2000442
:1032D000B4F87A600546771C4668A4F87A703278AC
:1032E00070788BB042EA002005912F89FEF7DAFD55
:1032F000C0F303218B1CB7EB830F10DB96F800C0E3
:1033000096F801A04CEA0A20FEF7CCFDC0F3032199
:103310008B0059422846FFF7B1F9824678B1B4F8DC
:103320007E00B4F88210421C4B1C2846A4F87E2074
:10333000A4F882300BB0BDE8F04FFFF777BB47F23F
:103340009060C2F200000790079F05993868D5F891
:10335000048000F001FE98F8001098F801B00746CC
:1033600041EA0B20FEF79EFD98F8022098F803C072
:10337000834642EA0C20FEF795FD47F28463C2F2D1
:1033800000031A68014608930992002A00F0DF80C2
:1033900047F28863C2F200031868079BD646D3F849
:1033A0000090134652460690B2460394164604E037
:1033B000D8681A4600286BD003465C8A8C42F7D145
:1033C000002F4FD1186800284DD1002E59D09C8A6B
:1033D0005C45EDD1586810B1069CA042E8D1564634
:1033E000039C9A46002A00F0AC80DB680999D36000
:1033F000089ACAF80C10C2F800A098F807C098F80C
:1034000006E05EEA0C2211D0B5F808C047F28861E8
:1034100047F29062C2F20001C2F200022846112374
:10342000CDF800C000F0F2FA00287AD128466FF0FB
:103430000701FFF723F900283DD1BAF1000F45D06D
:10344000DAF81840002C30D047F28863DAF81C0014
:103450005146CDF800B02A46C2F20003A0470BB097
:10346000BDE8F08F1868B7F1000C18BF4FF0010CE1
:10347000814514BF60464CF00100002898D0002E12
:10348000A5D193F810E01EF0040F08BF1E469EE77A
:10349000B446039C5646E246BCF1000FADD1059AF6
:1034A000079950680B689842A7D028460BB0BDE832
:1034B000F04FFFF7BBBAB4F87E1028464B1CA4F8B7
:1034C0007E300BB0BDE8F04FFFF7B0BACFB9079A26
:1034D000106800F0F00EBEF1E00F12D096F801C0B7
:1034E00096F800E04EEA0C20FEF7DCFCC0F3032166
:1034F0008B1C99002846FFF7C1F82846032100F0ED
:103500007DF8B4F87E00B4F88810421C4B1C2846A5
:10351000A4F87E20A4F888300BB0BDE8F04FFFF788
:1035200085BAB4F87E00B4F88020411C531C2846AC
:10353000A4F87E10A4F880300BB0BDE8F04FFFF780
:1035400075BAB4F88E20501CA4F88E0055E7DDF84B
:1035500024A0A4E72DE9F047804684B08A4691462E
:10356000012024210022FFF7D7FA054600283DD08C
:1035700046680024D8F8047086F800A086F8019008
:1035800034717471B471F47140681C22D8F804105D
:10359000083004F0A5F8B470F4706989304600F082
:1035A0009BF947F2A453C0F30F22F270B070C2F23D
:1035B0000003B3F8600004AA411CA3F860103B7B31
:1035C0007E7BB87BF97B43EA062C4CEA004646EA50
:1035D000016342F8043D21462846FF230126019657
:1035E000009400F05FFB2846FFF720FA04B0BDE826
:1035F000F08700BF0A460B21ACE700BF0A46032153
:10360000A8E700BF2DE9F04F47F2A456C2F200062A
:10361000B6F86250D0F804906A1CA6F862200446FE
:1036200099F8003099F8010085B043EA00200D4672
:10363000FEF738FCC0F3032A4FEA8A0ACAF10007F2
:1036400020463946FFF71AF808BB218903291ED9FD
:10365000606803785BB1082B24D0B6F87030B6F8F8
:103660006610581C4A1CA6F86620A6F87000204672
:1036700005B0BDE8F04FFFF7D9B90BF0F00BBBF187
:10368000E00F1BD0B4F808C0BCF1070F21D82046CA
:10369000FFF7CCF9B6F86A20501CA6F86A0005B00E
:1036A000BDE8F08F47F29068C2F20008D8F800B089
:1036B0002946584600F050FC0028DED0B6F87420A9
:1036C0002046531CA6F8743005B0BDE8F04FFFF754
:1036D000ADB9204600F006F9A8B920462221FEF730
:1036E000CDFFC8B10FFA8AFA20465146FEF7C6FF51
:1036F00000287CD02046FFF799F9B6F87430591CA1
:10370000A6F87410CBE72046FFF790F9B6F86800EA
:10371000411CA6F86810C2E720466FF02101FEF7B1
:10372000ADFF0028E6D10FFA8AFA98F800306268F7
:1037300089F80C3098F801C047F2886389F80DC009
:1037400098F802E0C2F2000389F80EE098F803004E
:1037500089F80F00197889F8101093F801C000213A
:1037600089F811C093F802E089F812E0D8784FF692
:10377000F67E89F81300937892F803C0117043EA3B
:103780000C23734552D9093398B2010AD170907055
:1037900000214FF0FF3E89F808E089F80B1089F806
:1037A0000A104846142100F097F8C0F30F2C89F84E
:1037B0000BC089F80A00B6F8603051465A1C204602
:1037C000A6F86020FEF75AFF844600287FF44FAF2A
:1037D00047F2906102460126C2F200012046FF2313
:1037E00001960295CDF800C000F08AF93FE702206B
:1037F00021890022FFF790F9834600283FF47AAF31
:103800002146FFF7C1F810F0FF0F7FF473AF394680
:103810005846DBF80470FEF731FF00287FF46AAFEA
:103820002046B9465C46FFF701F97EE708339BB2B4
:10383000180AD0709370ABE7F0B400F0010582B0C5
:103840004FF000020029D4BF002305F00103ADF8BA
:10385000062023B110F801CB01398DF807C00129EA
:103860000346D8BF4FF0000C1CDD8F1E7E08741C71
:1038700064000223A11EA342C1F34002B0F800C0BD
:103880000DD022B141880423A3428C4407D09A1C56
:10389000C35A815A9C44931CA3428C44F7D1C31849
:1038A000A7EB4601012904BF1B788DF80630BDF84F
:1038B00006300CEB03018AB202EB114C1FFA8CF0BC
:1038C00000EB1C4025B1C0F3072C00064CEA104069
:1038D00080B202B0F0BC704708B5FFF7ADFFC0433F
:1038E00080B208BD70B5044620B300263546606836
:1038F0006189FFF7A1FF6389401985B213F0010FB9
:1039000005EB104507D0C6F10106C5F307222906CD
:1039100042EA1145F6B22468002CE8D13EB1C5F365
:10392000072C2A064CEA1241C84380B270BDEB4313
:1039300098B270BD4FF6FF7070BD00BF2DE9F04F1B
:1039400083B0BDF83440071E18BF0127002C0CBF00
:10395000002707F00107019115469B46BDF83090FE
:10396000002F33D04FF0000A06465746B6F80A80BB
:103970007068444538BFA0464146FFF75DFF738934
:10398000C019C8EB040487B213F0010F07EB10470E
:10399000A4B208D0CAF1010AC7F30722390642EAE5
:1039A00011475FFA8AFA3668331E18BF0123002CCC
:1039B0000CBF002303F00103002BD7D1BAF1000F95
:1039C00004D0C7F3072C3F064CEA1747019A136847
:1039D0002A681FFA83FE0EEB134091B2431803EBE3
:1039E00012415846CF19FEF757FA3F184846FEF7DE
:1039F00053FA3F181FFA87FC0CEB17418AB202EB0F
:103A00001147F84380B203B0BDE8F08F2DE9F047CD
:103A10000C4615469946BDF820A00646002840D021
:103A20004FF00008474670687189FFF705FF7389FA
:103A3000C01987B213F0010F07EB104708D0C8F187
:103A40000108C7F30722390642EA11475FFA88F8EE
:103A50003668002EE7D1B8F1000F04D0C7F3072C69
:103A60003F064CEA174720682A681FFA80FE0EEBD3
:103A7000104391B2581800EB12414846CF19FEF797
:103A80000BFA3F185046FEF707FA3F181FFA87FC5B
:103A90000CEB174188B200EB1147FB4398B2BDE82D
:103AA000F0870746DFE700BF10B447F29C53C2F22D
:103AB00000031B6873B193F8292012F0010FF8D0AE
:103AC0005C6801689A6884EA01011142F1D11846E4
:103AD00010BC704747F2A053C2F200031B6823B129
:103AE00093F8290010F0010FF1D147F2A452C2F26D
:103AF0000002B2F856000023411CA2F85610E6E777
:103B00002DE9F04F8BB0079106930446169D9DF862
:103B100050809DF854701646002A00F09F801421B2
:103B2000FEF7ACFD0146002840F0B080D4F804A0B8
:103B3000069A8AF809708AF8082048F48A40D6F86C
:103B4000008043F26069C8F3072C4FEA184E4FEA31
:103B50001863CDF804E08AF811C08AF813308AF8A7
:103B600012E08AF810800591FEF796F9C0F30F2B4A
:103B70008AF801B08AF80000024620890492FEF714
:103B80008BF9C0F30F218AF8031083460598C2F21F
:103B900000098AF807008AF802B08AF80600B9F826
:103BA0000000FEF779F9C0F30F2C8AF805C08AF8F7
:103BB0000400B9F8003007995A1CA9F80020049BAA
:103BC000002949D00968002946D04FEA114C0A0E55
:103BD000C1F307298AF80F208AF80C108AF80EC062
:103BE0008AF80D90DDF804E01FFA88F80EEB080261
:103BF000DDF818E04EEA0727D219D3189B440BEBE7
:103C000000028BB2D11801EB0C0290B200EB124C07
:103C10000CEB1C436FEA030E1FFA8EF0010A8AF8C0
:103C20000B108AF80A0047F2A451C2F20001B1F861
:103C30004830581CA1F848002B8C1BB1B4F808E0A0
:103C40009E451CD82846214632466B699847C0B22B
:103C500040B20BB0BDE8F08F6968B6E743680AAEC2
:103C600093F811C01A7C987C93F813E042EA0C2177
:103C700041EA004C4CEA0E6046F8040DD3E72046BA
:103C80002946324600F0F2FAC0B2E1E747F2A45307
:103C9000C2F20003B3F85C10FE204A1CA3F85C20BB
:103CA000D6E700BF2DE9F047824684B0104617469C
:103CB000894698469DF830609DF83450FFF7F4FE31
:103CC000044668B1504649463A4643460096019537
:103CD0000294FFF715FFC0B240B204B0BDE8F08710
:103CE00047F2A453C2F20003B3F85610FC204A1C5A
:103CF000A3F85620F0E700BF2DE9F04F47F2A45497
:103D0000C2F20004B4F84A500646681C7568A4F86C
:103D10004A002B786A7883B043EA02208846FEF78F
:103D2000C1F8C0F30F30042810D03046FEF77EFEF5
:103D3000B4F85C30B4F84E00591C421CA4F84E2074
:103D4000A4F85C10002003B0BDE8F08F2A7895F845
:103D500001E042EA0E20FEF7A5F8EF78A978C0F35B
:103D6000032A41EA0720FEF79DF8B6F80AC04FEA99
:103D70008A0AD445074602D33089B8420DD230466C
:103D8000FEF754FEB4F85200B4F84E20431C511C08
:103D9000A4F84E10A4F85230D4E751462846FFF755
:103DA0009BFD002840F0BC8039463046FEF784FE7B
:103DB00095F810A0697C95F812C095F813904AEA1E
:103DC000012B4BEA0C4347F2906B43EA0967C2F2BE
:103DD000000BCBF80070287B6A7BA97B95F80FC09D
:103DE00040EA022A4AEA014947F28867C2F200071C
:103DF00049EA0C6347F29C5901973B60C2F2000903
:103E000047464FF0010A97F829E01EF0010F0AD04B
:103E10007B6839463BB1DBF80020934210460ED058
:103E200000F09AF858B9BAF1000F6ED0D9F80070C6
:103E3000474508BF3F684FF0000A002FE3D1019BC0
:103E400047F2886A18684146C2F2000A00F084F816
:103E500000285CD1DAF8001001F0F000E02856D01C
:103E6000002F75D0AA79E9794FF63F7C42EA012EFE
:103E7000C0F2000C0EEA0C0038B1304600F0BCFB7A
:103E8000064600283FF45EAF456847F28C6A47F269
:103E90009467C2F2000AC2F2000730464146CAF8EF
:103EA00000803D60FEF7EAFE30BB6B7A012B4AD002
:103EB000112B43D04146DBF8000047F29068C2F274
:103EC000000800F049F850B9D8F8000000F0F003FD
:103ED000E02B04D0756030460221FFF78FFB30469F
:103EE000FEF7A4FDB4F85830B4F84E00591C421C3B
:103EF000A4F84E20A4F8581001990022CBF8002015
:103F0000CAF800203A600A601CE73F6890E7304634
:103F1000FEF78CFDB4F84E305A1CA4F84E2011E781
:103F20003046FEF783FDB4F85000B4F84E20431C31
:103F3000511CA4F84E10A4F8503003E73046414617
:103F4000FFF7C0F9D8E730464146FFF75BFBD3E700
:103F50003046FEF76BFDF5E6431E13F1030F15D84F
:103F600091F8292012F0020F0ED04B6883420BD03B
:103F70008A6880EA0301114206D1D343184098426F
:103F800014BF0020012070470020704701207047B7
:103F90002DE9F00F006882B002AC4FF0000C4CF637
:103FA000CD43904644F8080DCCF6CC430A4666460D
:103FB00014F80C500020A3FB057A4FEADA0B0BEB48
:103FC0008B09A5EB49070DF1080A30370AEB000908
:103FD00007F0FF075FFA8BF500F1010A09F8047C8E
:103FE000BB4681465FFA8AF0002DE4D104F80C50FC
:103FF0004D4688B3B0453EDD0136C6EB080010F0F3
:10400000010F1DD002F8017B35B3B04533DD013D12
:1040100002AFEDB27819013610F8047C10E0B0451B
:1040200029DD1AF8047C5FFA89F50DF1080909EB1E
:10403000050A02F8017B013670B11AF8047C0136DA
:10404000681EC0B20DF1080B00F1FF390BEB000A3E
:1040500002F8017B002DE2D1B0450CDD0CF1010C22
:1040600010464FF02E05BCF1040F00F8015B08D19B
:104070000023137000E00021084602B0BDE8F00FF5
:1040800070470136024693E743F26461C2F20001D1
:1040900010227DE72DE9F041037886B0A3F13002CC
:1040A0005FFA82FCBCF1090F71D80DF10808302BC2
:1040B00008F10C07464637D00A25002406E005FB28
:1040C00004344378303C0130A3F13002D2B2A3F182
:1040D000610C092A5FFA8CFCF1D9A3F14102102D81
:1040E000D2B210D1BCF1050F0BD9052A0BD8BCF107
:1040F000190F06D941220A339B1A43EA0414437864
:10410000E1E76122F7E72E2B20D1BE423FD0346099
:1041100043780130A3F130025FFA82FCBCF1090F51
:1041200035D80436302BC7D110F8013F782B14BF97
:1041300000220122582B08BF42F00102002A2AD097
:1041400010F8013F1025A3F13002B6E7002B26D06E
:10415000B3F1200018BF01200C2B0CBF002000F091
:104160000100E0B1B3F10A0218BF01220D2B0CBF10
:10417000002202F0010292B1B3F1090C18BF4FF016
:10418000010C0B2B0CBF00230CF001033BB10020F2
:1041900006B0BDE8F0810825A3F130028DE7C8EB39
:1041A00006029010431C042B18D801A252F823F0E9
:1041B0008F410000DD41000009420000EF41000096
:1041C000C5410000FF2CE2D80298039A030643EA97
:1041D0000240049A40EA022C4CEA040429B1204629
:1041E0000191FDF765FE019908600120D0E7B4F563
:1041F000803FCCD2029B039A180640EA024343EA6E
:1042000004040029EBD1F0E7B4F1807F3CBF029BAE
:1042100044EA0364BBD20029E1D1E6E700B583B0EC
:1042200001A9FFF737FF10B1019803B000BD4FF0AF
:10423000FF30FAE708B5FDF73BFE00224FF00043E0
:1042400005E05B08034206D05B08202A09D0013252
:1042500001320342F5D113B903E0034203D15B08F5
:10426000FBD1012008BD002008BD00BF2DE9F04FA3
:1042700043688FB0079308919E790446D8790C92D1
:1042800046EA00200E8CFDF70DFE2289A6F10D01F5
:10429000143AB6F1140348BF0B4692B2C3F3CF03EE
:1042A00003920B93002A00F0BB80C104C90CDB0011
:1042B00044F2254A47F2A452133E049100F4005000
:1042C00099B2C0F2000AC2F200020A9600250990D3
:1042D0000D9106921426D14604980999C304DA0C6C
:1042E0000A4305920A9B039A9A42A9BF05989346EE
:1042F00040F400500590A8BFDDF834B0022014212E
:104300000022FEF709FC8046002800F0848007990F
:104310001422406803F0E4F961896268881B83B263
:104320009619D8F804A063816660BBF1000F2DD008
:104330005E461D4601E024686589AE4238BF3546B9
:10434000ADB2002DF7D00320FEF734F8294607461A
:104350000222034600285BD0D4F804C00320CDF825
:1043600000C00195FEF758F9014600284CD02046C0
:10437000761B0291B6B2FEF7CFF9C7F810907C61B8
:1043800002994046FEF7CEF9002ED4D10598FDF7EC
:1043900083FD0BF11401C0F30F238AF807308AF86C
:1043A000060088B2FDF778FDC0F30F228AF80200FC
:1043B0004FF000008AF803208AF80A008AF80B0000
:1043C00014215046FFF788FAC0F30F2C8AF80BC06F
:1043D0008AF80A00089841460C9A43699847069A59
:1043E0004046138E591C1186FEF720FB0398CBEB39
:1043F000000B1FFA8BF3039393B104980B994218A7
:1044000096B204962E4667E739460320FEF708F871
:104410004046FEF70BFBFF2040B20FB0BDE8F08F27
:104420000020F9E710B50446406908B1FEF7FEFA2E
:1044300021460320BDE81040FDF7F2BF2DE9F04111
:104440004468054660680E460379427953EA0222C1
:104450002ED00027C4B16368204693F801801978F4
:104460009A7841EA082E93F803C04EEA024848EAD7
:104470000C68FEF747F9C7192046BFB24446FEF75D
:10448000D5FAB8F1000FE6D143F27464C2F2000429
:10449000236828689D420CBF2060306029460220B6
:1044A000FDF7BEFFA2883846D71BA780BDE8F08184
:1044B00003784278817843EA022E90F803C04EEAEE
:1044C000014747EA0C611422696005F1080103F015
:1044D00007F920460121FFF78DF82046FEF712F973
:1044E00007462046FEF7A2FA6C68B3E72DE9F047CD
:1044F00043F2746705468846C2F2000700263B680F
:10450000002B4ED095F80CC06C7BA97B4CEA0420A4
:10451000EA7B40EA014C4CEA026C5A69002494455B
:10452000214620460DD0013440B393F81FA0C27F2E
:10453000924523D91A682AB3194613465A699445F5
:10454000F1D195F811902A7C95F812A042EA09223F
:1045500095F8139042EA0A42D3F818A042EA096299
:104560009245E0D12A7995F80590B3F80CA042EA7B
:1045700009229245DED001340028D6D11A681846A7
:10458000002AD9D180B1FFF759FF012CD4BF0024F4
:10459000012436184645ACBF002404F00104002C69
:1045A000ADD13046BDE8F0874645ACBF00230123BE
:1045B000012CD4BF002403F00104002C9FD1F0E7AC
:1045C00038B543F27463C2F200031B689BB1DA7F13
:1045D0000025511E42B11C68D9771D465CB12346A7
:1045E000DA7F511E002AF6D11C6818462946FFF7CB
:1045F00025FF002CF3D138BD2DE9F04F47F2A45B25
:10460000C2F2000BBBF83210D0F804804A1CABF8A1
:10461000322098F8003098F8011083B0074643EA3A
:104620000120FDF73FFCC0F30320052840F0158270
:1046300098F806E098F8079043F274664EEA09206D
:10464000FDF730FC98F80230814698F80300C2F27A
:10465000000643EA0020FDF725FC019098F80010C1
:1046600098F801A041EA0A20FDF71CFC00903846AA
:10467000FEF748F8B288824600EB020CBCF10A0F44
:1046800000F326823468002C00F0508298F80CE089
:1046900098F80DC098F80E1098F80F504EEA0C23B9
:1046A00043EA014040EA05624146002504E02368F0
:1046B0002546002B38D01C4660699042F7D10B7C10
:1046C00091F811C0887C43EA0C2891F813E048EA7D
:1046D0000043A06943EA0E684045E8D108794B7968
:1046E000B4F80CE040EA0328C645E0D1BBF84630F8
:1046F0008846581CABF8460091F806C091F807B000
:104700004CEA0B20FDF7CEFBC104CA0C82BBE0894A
:10471000FDF7C8FBC204D00C50B304F108004146B9
:10472000142202F0DDFF23E088460220FDF742FE5E
:104730000446002800F0DE810021234643F8041BD4
:104740001A1D616042F8041B42F8041B42F8041B66
:1047500042F8041B42F8041B03201160E077336821
:1047600004F10800236041461422346002F0B8FFCF
:10477000B6F804B00AEB0B0EA6F804E098F806A011
:104780001AF0200F15D1009801994FEAC94AC0F3D9
:10479000032394F81EC04FEADA4201EBC200C3EBD8
:1047A000833100EB81084CF0010984F81E90A4F8D5
:1047B0001C80D7F8048098F803E098F802A04AEA31
:1047C0000E20FDF76FFB98F80090824698F80100E4
:1047D00049EA0020FDF766FB98F807C098F8061034
:1047E000834641EA0C20FDF75DFBC204D30C4FEA7F
:1047F000C30CCBF303290CEB0A00C9EB893900EB9E
:10480000890BD7F804A01FFA8BFB00234FEA1B2269
:104810004FEA1C218AF803308AF805108AF807202D
:104820008AF800308AF801308AF802308AF804C029
:104830008AF806B06268002A00F07A81536893F81B
:1048400004E058794EEA00218C45C0F0758100F0F3
:10485000338193F806E0D9794EEA0122944528BFC6
:104860004FF001081FD227E1426892F804E092F865
:1048700005904EEA09218C45C0F0028100F01C81B0
:1048800092F806E092F807904EEA09208445C0F0BD
:10489000138193F807909879134640EA09229142D0
:1048A00018BF4FF000081A7893F801E0997842EAAF
:1048B0000E20DA7840EA014E5EEA0260D4D1002B85
:1048C00000F038813A0EC7F3072EC7F3074C83F880
:1048D00002C0DA7083F801E01F70D8799A799AF8EB
:1048E00004E09AF8051042EA002C4EEA01239C45A8
:1048F00018BF4FF00008A37F13F0010F00F01381E1
:10490000B8F1000F00F00F8167687A68517910796B
:1049100050EA012240F007819AF800009AF801203D
:104920009AF8021040EA02239AF803E043EA014CA5
:104930005CEA0E632AD05B689AF807209AF80610A2
:1049400093F804E0587941EA022A4EEA002CE24545
:104950000FD0E8E0526893F807C0997992F804E024
:10496000507941EA0C2A4EEA00239A4540F0DB8058
:10497000134693F800C0597898784CEA012E93F8C2
:1049800003A04EEA004252EA0A62E3D1A18BD7F8B3
:1049900004801431A18398F8013098F800C098F889
:1049A00002004CEA032E4EEA004A04F108011422E8
:1049B000404698F8037002F093FEA08BFDF76CFA66
:1049C0000021C0F30F2288F80B1088F8020088F845
:1049D000061088F8071088F80A1088F80320404667
:1049E0001421FEF779FFC0F30F234AEA076788F81E
:1049F0000B3088F80A00D4F804A0BFB1A0463C46AA
:104A0000676820466FF01301FDF738FE21465046D7
:104A1000FDF788FE3B787978BA7843EA012CF8787C
:104A20004CEA024454EA0064EAD14446326843F254
:104A30007461944208BF2268C2F2000116BF216867
:104A40000A60296021460220FDF7EAFC5046B4883E
:104A5000FDF758FE201AB0800EE0BBF84430581C19
:104A6000ABF84400BBF8361038464B1CABF8363078
:104A70004FF0000AFDF7DAFF504603B0BDE8F08FB3
:104A8000010EC0F3074EC0F3072900918AF8019088
:104A90008AF802E000998AF800008AF8031093F877
:104AA00006E0D8794EEA00218C4505D35079127979
:104AB00042EA002CE3452BD93846B488FDF722FEA4
:104AC000241A3846B4804FF0000AFDF7AFFFD3E751
:104AD00040465146FFF70AFD30B1B2880AEB020C9E
:104AE000BCF10A0F7FF7CEADBBF83C104A1CABF807
:104AF0003C20B7E740465146FFF7F8FC8245F3DC1F
:104B00000220FDF757FC044600287FF415AEEBE7C2
:104B10003A0EC7F30721C7F3074EDA70597083F8CE
:104B200002E01F70E7E64FF0000AA5E72546FCE526
:104B30004FF001086760DEE6C2F30748130EC2F3C8
:104B4000072E8AF802808AF801E08AF803308AF892
:104B500000204FF001086760CDE600BF42F200017F
:104B6000CEF2040188694EF2001340F004028A611B
:104B7000086BCEF2000340F020024FF400700A638D
:104B8000C3F880010A6B43F27C63C2F2000322F097
:104B90002000002208639A611A701A721A745A70FF
:104BA0005A725A74DA619A709A729A741A62DA7046
:104BB000DA72DA745A621A711A731A759A625A7131
:104BC0005A735A75DA629A719A739A755A631A63AC
:104BD000DA71DA73DA757047013044F2000CC4F20E
:104BE000000C30B4440154F80C500E2945F0200557
:104BF00044F80C5054F80C5025F0200544F80C50A3
:104C00000BD048F2BC45C0F2000555F8211054F80D
:104C10000C5045EA010144F80C1044F2000CC4F2B7
:104C2000000C400150F80C40224340F80C2050F892
:104C30000C2042EA833340F80C3030BC704700BF90
:104C40002DE9F00144F2000C441C6501C4F2000C93
:104C500055F80C7005F1804647F0100745F80C70C8
:104C600006F58046766816F0010F04BF43F27C66B5
:104C7000C2F200060ED055F80C7043F27C6647F085
:104C80008008C2F2000645F80C8087194FF0000C2E
:104C900087F808C0670107F1804C0CF580456D6806
:104CA00044F2000C15F0020FC4F2000C08D057F8C3
:104CB0000C80851948F4807847F80C8000272F7401
:104CC000650105F1804C0CF580477D6815F0040FF7
:104CD0001AD1450105F1804707F580454FF0010CD9
:104CE000871987F808C006F800C0A962EA622B633A
:104CF00044F20003C4F200036401E05820F0100203
:104D0000E250BDE8F0017047450105F1804707F525
:104D100080454FF0010C871987F810C04FF0000C48
:104D200006F800C06963AA63EB63E1E743F27C6CB9
:104D3000C2F2000CF0B41CF80040A4B900EB0C0562
:104D40002C7A012C24D0460106F1804404F58044DD
:104D5000012500EB0C06A162E262236335720CF8B8
:104D60000050F0BC704700EB0C052C7C012C24D0CB
:104D7000450105F1804404F58044616300EB0C05B6
:104D8000A2630121E363002329740CF80030E8E7F3
:104D9000470014FA07F744F20006C4F200067568EB
:104DA00044F200042F42C4F20004F8D0451C6D0107
:104DB0002E5946F080062E51C5E74600771C14FA9E
:104DC00007F744F20006C4F20006756844F20004D6
:104DD0002F42C4F20004F8D0451C6D012E5946F450
:104DE00080762E51C4E700BF44F220014201C4F294
:104DF00000015318586800F003007047684620F01F
:104E000007018D4679B544F20003C4F200035C68E3
:104E100048F2BC4643F27C65A4B2C0F20006C2F27E
:104E2000000514F0030F18D0002305EB830006EBF8
:104E300043031A8F836924EA020403B19847002CC4
:104E4000EFD14EF20012CEF200024FF40071C2F820
:104E50008011BDE879408546704714F00C0F01D0F1
:104E60000123E2E714F0300F01D00223DDE714F054
:104E7000C00F04D114F4407F03D00423D5E70323EB
:104E8000D3E714F4406F04D114F4405F03D0062339
:104E9000CBE70523C9E714F4404301D00723C4E757
:104EA00000BEC2E730B444F20003441CC4F2000365
:104EB0006401E55843F27C6CC2F2000C4EF2001221
:104EC00045F04005E5500CEB8000CEF200024FF4B7
:104ED00000738161136030BC704700BF421C44F214
:104EE000000C5001C4F2000C50F80C304EF20012CD
:104EF00043F04001CEF200024FF4007340F80C1072
:104F000013607047421C44F2000C5001C4F2000CC4
:104F100050F80C304EF2001243F0800140F80C10B3
:104F200050F80C30CEF2000243F480714FF400735D
:104F300040F80C10C2F88031704700BF42F2000305
:104F4000CEF20403186B48F2045C40F480424EF247
:104F50000010F0B41A63C0F2000CCEF2000000237F
:104F600001249A1C3CF803103CF8023001F01F07A2
:104F700003F01F0514FA07F714FA05F50EB21BB279
:104F800059097609931C60366031402B40F8267031
:104F900040F82150E5D142F20003CEF204031A6B2F
:104FA00022F480401863F0BC704700BF1F2801D96D
:104FB00000BE704748F20452C0F2000202EB8000CB
:104FC000036C1960704700BF1F2801D900BE7047ED
:104FD00040F20003C4F2262300F5886043F8201055
:104FE000704700BF1F2810B402D900BE10BC704724
:104FF00001291DD018D2012303FA00FC43F200035B
:10500000C4F2010348F20452D3F88810C0F200023F
:1050100002EB8000026C21EA0C01C3F888101168D1
:1050200041F004001060E1E7022917D000BEDDE77F
:10503000814043F20003C4F2010348F20452D3F862
:105040008840C0F2000202EB8000026C2143C3F8EA
:105050008810116841F004001060C7E748F2045C52
:10506000C0F2000C0CEB80010B6C186820F00402FD
:105070001A60BBE71F2810B402D900BE10BC7047ED
:1050800048F20453C0F2000333F810C001240CF0BE
:105090001F02944003EB80010A6C4EF2001310686B
:1050A0000FFA8CF140F008004909CEF200031060BD
:1050B00043F82140E2E700BF1F2801D900BE704736
:1050C00048F2045CC0F2000C0CEB80010B6C186819
:1050D00020F008021A6070471F2810B402D900BEE1
:1050E00010BC704748F20453C0F2000333F810C0FC
:1050F00001220CF01F0412FA04F412FA00F00FFA65
:105100008CF1490943F200024EF20013C4F201028D
:10511000CEF200036031C2F8800043F82140DFE79F
:1051200030B41346C2B30D7848F2C45480EA050285
:1051300002F0FF0CC0F2000454F82C505A1E85EA0D
:10514000102002F001050122934225D965B191F8A2
:1051500001C0022280EA0C0505F0FF0C54F82C5027
:10516000934285EA102017D911F802C0013280EA73
:105170000C0505F0FF0C54F82C5011F802C085EA1C
:10518000102080EA0C0505F0FF0C54F82C50013279
:10519000934285EA1020E7D830BC704730B403460C
:1051A0000A4600293BD0007848F2C454C14301F0BC
:1051B000FF0CC0F2000454F82C50511E6FF07F40D9
:1051C00085EA000001F0010501218A4225D965B177
:1051D00093F801C0022180EA0C0505F0FF0C54F899
:1051E0002C508A4285EA102017D913F801C00131EA
:1051F00080EA0C0505F0FF0C54F82C5013F801C0A0
:1052000085EA102080EA0C0505F0FF0C54F82C50BC
:1052100001318A4285EA1020E7D830BC70474FF050
:10522000FF30FAE743F2B463C2F20003196847F2B1
:10523000986343F20002C2F20003C4F200029942F2
:1052400010B49069146A08D093F804C01CF0010FE0
:1052500003D003F5115188426DD000BE40F2000327
:10526000C4F20623D3F87816D3F85826081E18BFC0
:1052700001200AB140F0020040F20001C4F2062110
:10528000D1F854260AB140F0040043F20002C4F2FF
:105290000002136BC3F38133022B08BF40F01000F0
:1052A00008D0032B08BF40F0180003D0012B08BF23
:1052B00040F0080040F20003C4F20623D3F824169D
:1052C00009B140F0200040F20001C4F20621D1F8FB
:1052D0001C260AB140F0400040F20002C4F206224F
:1052E000D2F818360BB140F0800040F20003C4F24F
:1052F0000623D3F8101609B140F4807040F2000183
:10530000C4F20621D1F80C260AB140F4007040F234
:105310000002C4F20622D2F808360BB140F48060D5
:1053200040F20003C4F20623D3F8001609B140F49A
:10533000006010BC704703F544600C3084428CD18F
:105340008CE700BF43F2B463C2F20003196847F26E
:10535000986343F20002C2F20003C4F200029942D1
:1053600030B49469156A08D093F804C01CF0010F9A
:1053700003D003F511518C4212D000BED97A41718D
:1053800093F80AC080F804C05A7AC270197A817002
:1053900093F807C080F801C09B79037030BC704758
:1053A00003F544620C329542E7D1E7E7EC462CF076
:1053B00007018D4643F2B461C2F200012DE9785035
:1053C000086847F2986343F20002C2F20003C4F295
:1053D000000298429469156A07D0187910F0010FFD
:1053E00003D003F5115294423ED000BE43F20002B6
:1053F000C4F20002906A10F4803F02BF4CF6E753FB
:10540000C0F2010393621ED010F0010204D0194CC7
:105410000122256BAD18256310F0400F17D0154DF4
:1054200043F200006E684CF6E754C4F20000013607
:10543000C0F201046E60846242F00200DB6E4A68D2
:10544000934200D09847BDE879408546704743F2C3
:1054500000004CF6E754C4F20000C0F2010484627C
:10546000002AF0D00120E9E703F544600C308542C2
:10547000BBD1BBE7189B002043F2B462C2F200022A
:1054800070B447F29863146843F20001C2F200035B
:10549000C4F200019C428D690E6A08D093F804C0E2
:1054A0001CF0010F03D003F51154A54214D000BE27
:1054B000546840F200020021C4F20622A042C2F861
:1054C0000017D866C2F8181704D00123C2F80037B5
:1054D000C2F8183770BC704703F544610C318E4236
:1054E000E5D1E5E743F2B463C2F20003196847F27D
:1054F000986343F20002C2F20003C4F20002994230
:1055000010B49069146A08D093F804C01CF0010F1D
:1055100003D003F51151884211D000BE59794A4297
:1055200050B20728D5BF094B48F6C41000EB8000E5
:10553000C0F20000D8BF03EBC00010BC704703F5F9
:1055400044600C308442E8D1E8E700BFD489000011
:1055500043F2B463C2F20003196847F2986343F25E
:105560000002C2F20003C4F20002994230B494690E
:10557000156A08D093F804C01CF0010F03D003F59E
:1055800011518C4246D000BE112841D8DFE800F00E
:105590003D3A3734312E2B2825221F1C19161310A3
:1055A0000D091F4A906C30BC70471D49486CFAE7E2
:1055B0001C4B1868F7E71A4AD06BF4E71849886B58
:1055C000F1E7174B586BEEE7154A106BEBE7144900
:1055D000C86AE8E7124B986AE5E7114A506AE2E7C1
:1055E0000F49086ADFE70E4BD869DCE70C4A90697F
:1055F000D9E70B494869D6E7094B1869D3E7084A48
:10560000D068D0E706498868CDE7054B5868CAE7F7
:105610000020C8E703F544620C329542B3D1B3E7EA
:10562000189B0020589B002047F29862C2F20002AB
:10563000D2F86C1C70B401F511700301995802F591
:10564000125311F0804F02D09D686C1C9C6011F4C5
:10565000804F02D0D868461CDE6011F4006F02D083
:105660001D696C1C1C6111F4007F02D15869461C35
:105670005E6111F4807F02D19D696C1C9C6111F008
:10568000800F02D0D869461CDE6111F0400F02D0B5
:105690001D6A6C1C1C6211F0020F02D05E6A711C44
:1056A000596243F20004C4F20004206CD2F86C6C1E
:1056B0009D6ADC6A20F07F4C2CF47E01C0F34B40E5
:1056C0004019091906F5117CD96298624FEA0C1C41
:1056D0004FF000434CF80230D2F86C0C40F200035B
:1056E000411C01F00300C2F86C0CC4F20623012235
:1056F000C3F8042670BC704740F20003C4F20623CE
:1057000070B5D3F80C4647F29865D4F1010438BF60
:105710000024C2F200050026D5F86C3C03F5117197
:1057200005EB011300E000241A68002A0ADB4CB1E3
:10573000186800F40342B2F5407FF4D0FFF774FF1D
:105740000136E9E7304670BD43F2B460C2F20000B2
:10575000026810B547F2986443F20003C2F20004F5
:10576000C4F20003A2429969186A08D094F804C0F0
:105770001CF0010F03D004F5115E714514D000BE7A
:10578000FFF7BAFFD4F86C1C47F2986301F5117269
:1057900012011059C2F20003002803DBD058C0F3F5
:1057A0000D4010BD002010BD04F544610C3188424D
:1057B000E5D1E5E743F20002C4F2000247F2986344
:1057C000916DC2F2000340F2000010B4C4F2062052
:1057D000B3F8664089B24FF6FF72D0F85806A1427E
:1057E00098BF0022C1EB040C624410B902EB8204A2
:1057F00062009C6E47F29860A242C2F2000010D292
:10580000A21A8266986E4CF23F5200EB8000400074
:10581000C4F22532A2FB00C0A3F86610400910BCF8
:10582000704700228266EDE747F298634DF690409C
:1058300070B5C2F20003C0F2010043F200069866A0
:10584000C4F20006B26D40F20005A3F86620C4F26F
:105850000625002408E05CB9C5F80446FFF7AAFF56
:10586000002808BF6FF00504B16A11F4C02FF2D10F
:10587000204670BD47F298634DF6904070B5C2F275
:105880000003C0F2010043F200069866C4F200066D
:10589000B26D40F20005A3F86620C4F2062500248C
:1058A00008E05CB9C5F83446FFF784FF002808BF5C
:1058B0006FF00504B16A11F4E00FF2D1204670BD1B
:1058C0002DE9F04F47F29864C2F20004227940F2C9
:1058D000C003BBB0C0F600234FF0004112F002023B
:1058E0003691379340F09380379D06A945F48000A8
:1058F0004027379003923891A5233992A420A125FF
:10590000A0264FF09D0801974FF09C09E27A94F889
:1059100006B0059294F807A03AAA277A94F809E00D
:10592000551991449044961994F80AC009F8D0BCCE
:10593000101808F8D0AC06F8D07C05F8D0EC059D1E
:10594000D21800F8D0CC039847F2986302F8D05CE4
:10595000019A0918C2F20003002093F80C805F7BC3
:105960009E7BDD7B93F810E093F811C0063081F840
:1059700000804F700E714D7181F808E081F809C008
:1059800006330C318242E8DCFFF774FF00B100BE41
:10599000FFF74AFF00B100BE43F2000640F20002EA
:1059A0004DF69040C4F20006C4F20622C0F2010097
:1059B000012736A93162C2F83476A066B36D00259E
:1059C000A4F8663007E065B9B760FFF7F3FE00287A
:1059D00008BF6FF00505B36AC3F3025CBCF1060FA4
:1059E000F1D1FFF747FF10BB164843F2000240F227
:1059F0000003C4F206230121C4F200021062C3F8BE
:105A00003416C3F8041628463BB0BDE8F08F0026D4
:105A100006A90C275A223891B14639960923082045
:105A2000052504264FF00108039701926EE74FF019
:105A3000FF3E84F805E0FFF71DFF0028D4D000BE2C
:105A4000D2E700BFE482002043F2B463C2F2000355
:105A5000196847F2986343F20002C2F20003C4F2ED
:105A600000029942F0B49469156A09D093F804C011
:105A70001CF0010F04D003F511518C4200F0298174
:105A800000BE90F800C01CF0010F00D000BE4279AB
:105A90001979DA7290F804C047F2986283F80AC064
:105AA00090F803C011F0020F83F809C090F802C00B
:105AB000C2F2000283F808C090F801C083F807C062
:105AC0000078987100F0038192F8601011F0010FD6
:105AD00040F0FD8092F85A70D67A957A547A92F80E
